:030000000207DF15
:0C07DF0078FFE4F6D8FD75815F02082663
:02008000C12697
:1000860053A87F1208F4120D03120CF3120C9B12E4
:0D0096000CA8120CB543A880120B0280FECE
:03004B0002004967
:010049003284
:0300530002004A5E
:01004A003283
:03006B0002099CEB
:10099C00C0E0C0F0C083C082C0D075D000C000C021
:1009AC0001C002C003C004C005C006C007120A473C
:1009BC00D007D006D005D004D003D002D001D0008F
:0B09CC00D0D0D082D083D0F0D0E03239
:0300830002005226
:01005200327B
:0300A300020D2724
:010D27003299
:070CEB00E5E530E5FBAFE792
:010CF20022DF
:080CF300E4F5ECF5EBF5F52248
:0D0C9B0075B29275B47C43AA0243B20122E7
:0D0CA80075C67C75C28E43AA1043C201229E
:100C000020261275E30275E20643E3ECE4F5E47591
:080C1000E66743A918D2262271
:10006E0030260CE4F5E3F5E2F5E4F5E653A9E7C234
:02007E00262238
:080CFB00E5E530E7FB8FE7227D
:04004E00438D20229C
:090CD900758E01758DC002004EFC
:0D0CB500759E80759F01759F8143AB0422E1
:070D030075D928E4F58A22EE
:1008F4007589F6E4F5D4F592F5E9F5807591F0750E
:10090400D50FF593F5EAF5887599FFF5D6F594F5C5
:100914009075A1FFF5D7F595F59875B1FFF5DAF562
:1009240096F5A075B95FF5DBF59AF5B075C1F1F5EB
:10093400DCF59BF5C0F5EDF5EEF5EFF5F175F31883
:06094400F5F275F40C222F
:060D1100E4F51DF51822B7
:0A0CCF00E4784BF67853F6C21122C8
:100B2B00E5186023784206E6C394084004E4F6B265
:100B3B0010D51813E51D600F24EB70057F14020D03
:080B4B001D751801E4F51D22DF
:100B5300784EE67844F608E67852F6E4FF785206D3
:100B6300E6C3943C400CE4F6784406E6941840024D
:060B7300E4F60FBF09E7E4
:010B79002259
:100056002012117847E6600CC213120B53E4FF120C
:050066000D1DD2122265
:100A7B00784DE6FF7857666028A6077845E6FF783D
:100A8B005166601DA6077843E6FF784E66601278C4
:100A9B0043A607900018E004F0E0C394184002E46A
:020AAB00F02237
:10094A00E52CB40225784906E618700106C37849F1
:10095A00E694B818E6940B4038E4F52CF527F60827
:10096A00F6784EA6297845A62A22E510B4022278FE
:10097A004906E618700106C37849E694B818E69461
:10098A000B400EE4F510F527F608F6850C0A850DDE
:02099A000B222E
:100A4700D2157856E6FF7002D216EFB40102D2171C
:100A5700EFB40202D219EFB40302D21AEFB40402C0
:100A6700D21BEFB40502D21C785606E6C3940A409F
:040A770002E4F6227D
:100BA000751C0175190375110278547608E408F66E
:100BB000C21ED218D214784DF67845F6784EF675E6
:050BC0001A02C213221D
:100B0200120BA043800443B01043B0084390044347
:100B1200A00143901043902043B00143B00443A08E
:090B22000243900843988080DA38
:1006B800E4FFFEE588540F640F60254388204388D3
:1006C80020438820438820E588540FFF5388CF4370
:1006D8008810438810438810438810E588540FFE1B
:1006E8005388CFBF0E06BE0F037F0122BF0D06BE83
:1006F8000F037F0222BF0B06BE0F037F0322BF0733
:1007080006BE0F037F0422BF0F06BE0E037F05221D
:10071800BF0F06BE0D037F0622BF0F06BE0B037F69
:100728000722BF0F06BE07037F0822BF0E06BE0EB4
:10073800037F0922BF0D06BE0E037F0A22BF0F06E4
:08074800BE0C037F0B227F00B1
:010750002286
:030D23001206B8FD
:010D260022AA
:10061900E4F525E5316F600BE5326F60038F322217
:100629008F3122E53165307051E53070030206B72C
:10063900E528607A1528E528707485302EE526703E
:1006490003752501E52F14601414601B1460182428
:1006590003705B752F01432E2075283222752F02F6
:10066900432E6075281422752F03432E8075281494
:10067900E52DC394FA5037052D22E5306025F52E76
:10068900E5267003752501E52F24FE600C14600B27
:100699002402700A432E4080058000432EC0E4F5F1
:0F06A9002F8005E4F526F52D75280585313022C3
:060D1700120D2302061973
:1000A600E52570030202CCE52E1207B900E34100F4
:1000B600FD4201874301974501FC46028347028EB4
:1000C6004802AA4A02B94B00FD8201FC86028E88CC
:1000D600029A8902AA8A02B98B000002C6E50EB40A
:1000E60001067512010202C61519E519600302021E
:1000F600C67519030202C6E527B40114E51CB4034C
:100106000FE529C3940C40030202C605290202C664
:10011600E527B40211E51CB4030CE52AC3943B5051
:100126004E052A020228E527B40314E508B4010F98
:10013600E50CC3940C40030202C6050C0202C6E598
:1001460027B40414E508B4010FE50DC3943B40033E
:100156000202C6050D0202C6E527B40515E508B478
:100166000110E511B4020575110180037511020233
:1001760002287854E6C3940F40030202C606020220
:10018600C6E540D3940050030202C6751B06020260
:10019600C6E527B4010E752702752C02E47848F6E9
:1001A60008F68010E527B4020BE4F527784EA62959
:1001B6007845A62AE51CB40310E527700C752703BD
:1001C6007508017510020202C6E527B4030EE5089C
:1001D600B40109752704E4F5100202C6E527640494
:1001E60060030202C6E508640160030202C67527C1
:1001F600057510028075E527B40114E51CB4030FDC
:10020600E529D3940050030202C615290202C6E569
:1002160027B40211E51CB4030CE52AD3940040026E
:10022600152AE48046E527B40314E508B4010FE572
:100236000CD3940050030202C6150C0202C6E52731
:10024600B40410E508B4010BE50DD3940040711514
:100256000D806DE527B4051AE508B40115E511B45E
:1002660002057511018003751102E47848F608F657
:10027600804E7854E6D394004046168043E54064A9
:1002860001603D7540018038E540D39400403175EA
:100296001B05802CE51C64037026E52DB40A217528
:1002A6002701801CE51CB40317E52DB40A12784E0D
:1002B60006800DE51CB40308E52DB40A03784E1636
:0702C600751E00852E1F22AA
:100B7A003F065B4F666D7D077F6F005F7C585E7432
:100B8A0006545C50781C6E773979713D76061E38AA
:060B9A00373F736D3E4081
:100C1800EF75F00A84F513EF75F00A8485F014E592
:070C280013700375130A228B
:100C2F00EF75F00A84F515EF75F00A8485F016223A
:090CE2007855E66002D322C3221A
:1009D700EF14600D04700E784EE6FE7845E6FD8054
:1009E70004AE0AAD0B30181FEEC3940C5004D208A6
:1009F7008006D20974F42EFEEE70027E0CAF06124A
:070A07000C18AF05120C2FC3
:010A0E0022C5
:070D0A00D2057F010209D7A9
:100C3F00201005120CE25007D2057F011209D722AE
:100C4F00201005120CE25007D205E4FF1209D7223B
:0E0C7F00301E03301407D205E4FF1209D722FD
:0E0C8D00201005120CE25005AF1A120C2F2297
:0F0C5F007F057813740AF608DFFCE4F520F52111
:010C6E002263
:0D0CC20075130A75143375152A75162A224C
:100BE700E511B40203D20022E511B4010BE508B404
:090BF7000106E5127002D20F2282
:100A0F00E51D24FD601414601624FD601724F060AA
:100A1F001824167019120D0A8017120C4F8012121B
:100A2F000C8D800D120C3F8008120CC28003120C2B
:080A3F007F7855E660011622E4
:100BC500E51D6403601BE51D64076005E508B401C8
:100BD50010E51DB4070B201005120CE25003120B93
:020BE500E72205
:100AD800201E04E5186022120C5F120A0F120BC5C3
:100AE800E4FF74132FF8E6900B7A93FE74392FF80D
:090AF800A6060FBF04EC1202CDAA
:010B010022D1
:100C6F00201E0CE5187008E508B40103120BE722EB
:060D1D008F1D7518A022D5
:10046E002020202020200D0A20434F4D2B50410DDF
:10047E000A20434F4D2B50550D0A20434F4D2B5004
:10048E00560D0A20434F4D2B504E0D0A20434F4D13
:10049E002B50520D0A20434F4D2B41430D0A204342
:1004AE004F4D2B5057440D0A434F4D2B44430D0ACD
:1004BE0020434F4D2B5630300D0A434F4D2B5630A7
:1004CE00310D0A434F4D2B5630320D0A434F4D2BF3
:1004DE005630330D0A434F4D2B5630340D0A434FD1
:1004EE004D2B5630350D0A434F4D2B5630360D0AD7
:1004FE00434F4D2B5630370D0A434F4D2B56303848
:10050E000D0A434F4D2B5630390D0A434F4D2B5686
:10051E0031300D0A434F4D2B5631310D0A434F4D9D
:10052E002B5631320D0A434F4D2B5631330D0A43A4
:10053E004F4D2B5631340D0A434F4D2B5631350D41
:10054E000A434F4D2B5631360D0A000102030405A6
:0A055E00060708090A0B0C0D0E0F2A
:100003007858E670FB7F08900000E4F0A3DFFCE47F
:10001300FF120751FE601674002FF582E43400F5D9
:1000230083EEF0740129F9E43AFA0F80E4E4785A94
:10003300F678587601785AE6062400F582E434000F
:05004300F583E0F5E784
:010048002295
:100AAD00EFC39409500CEF75F009A4246EF974048A
:100ABD0080107854E69005589375F009A424BFF979
:0A0ACD00740435F0FA7BFF120003F9
:010AD70022FC
:10086B002021062022030208F330210DC221753D01
:10087B0001753E00753F08800BC222753D01753E28
:10088B0000753F10AB3DAA3EA93F12075164427061
:10089B004290000112076A645470389000031207EB
:1008AB006AFFB4430B90000412076AB44E02D220C5
:1008BB00EFB4500B90000412076AB44102D225909A
:1008CB00000312076AB4200B90000412076AB420CD
:1008DB0002D225E4FFAB3DAA3EA93F8F8275830070
:0808EB00E41207970FBF08EDAE
:0108F30022E2
:1005680012086BE54064017076201F11785FF6C2AF
:1005780020C2257854E6F4785DF6E4F541D21FE50B
:100588004114600F1460151460151460142404706D
:1005980016806912006E53C0FE0541220541228073
:1005A80067120C000541227854E6FF785D66600901
:1005B800A6077F09120AAD800D785EE6FF60071274
:1005C8000AADE4785EF6E5C030E110785FE6D394D2
:1005D80005400443800222785F06225380FD2230C2
:1005E8001F06E4785FF6F541C21FE5411460131455
:1005F8006013146013146016240470145380FD05EE
:10060800412205412205412243C0010541220541FD
:0106180022BF
:1002CD00301D0C7539FF753AFF753BFF753CFFE529
:1002DD00336539601DE53930E405439004800353DF
:1002ED0090FBE53930E50543A001800353A0FE8561
:1002FD003933E534653A605EE53A30E005439010F8
:10030D0080035390EFE53A30E1054390208003538D
:10031D0090DFE53A30E20543B001800353B0FEE5CE
:10032D003A30E30543B004800353B0FBE53A30E4C3
:10033D000543A002800353A0FDE53A30E505439047
:10034D000880035390F7E53A30E605439880800323
:10035D0053987F853A34E535653B605EE53B30E08B
:10036D000543980180035398FEE53B30E105439822
:10037D000280035398FDE53B30E20543A010800356
:10038D0053A0EFE53B30E30543B002800353B0FDCE
:10039D00E53B30E40543A020800353A0DFE53B306F
:1003AD00E505439080800353907FE53B30E60543A0
:1003BD00984080035398BF853B35E536653C605EBC
:1003CD00E53C30E00543980880035398F7E53C3051
:1003DD00E10543981080035398EFE53C30E2054367
:1003ED00A004800353A0FBE53C30E30543A08080CF
:1003FD000353A07FE53C30E40543A008800353A0E0
:10040D00F7E53C30E50543980480035398FBE53C44
:10041D0030E60543982080035398DF853C36E52070
:10042D0065376023E52030E0054380048003538069
:10043D00FBE52030E40843904043A04080065390F4
:10044D00BF53A0BF853D37E52165386013E52130E9
:10045D00E0035390FDE52130E103439002853E38E2
:01046D00226C
:1007EB00020086E493A3F8E493A34003F68001F29E
:1007FB0008DFF48029E493A3F85407240CC8C3330F
:10080B00C4540F4420C8834004F456800146F6DFDD
:10081B00E4800B0102040810204080900080E47EED
:10082B00019360BCA3FF543F30E509541FFEE493D2
:10083B00A360010ECF54C025E060A840B8E493A399
:10084B00FAE493A3F8E493A3C8C582C8CAC583CAC4
:10085B00F0A3C8C582C8CAC583CADFE9DEE780BE7C
:01008200007D
:10075100BB010689828A83E0225002E722BBFE02A6
:09076100E32289828A83E49322D9
:10076A00BB010CE58229F582E5833AF583E0225044
:10077A0006E92582F8E622BBFE06E92582F8E2228E
:0D078A00E58229F582E5833AF583E49322A8
:10079700F8BB010DE58229F582E5833AF583E8F098
:1007A700225006E92582C8F622BBFE05E92582C844
:0207B700F2222C
:1007B900D083D082F8E4937012740193700DA3A3CF
:1007C90093F8740193F5828883E4737402936860E3
:0607D900EFA3A3A380DFE3
:00000001FF
