:0300000002087281
:0C08720078FFE4F6D8FD7581870208B914
:020FBF00C12649
:1000860053A87F120A9E120FA3120F93120F2F125C
:0D0096000F3C120F4943A880120B8480FE1E
:03004B00020A475F
:0B0A4700C0E0C0D075D000C000C007A8
:100A5200AFE753E5DB786C760A30241D786AE6C38B
:100A620094085007E6062459F8A607EF640A702393
:100A7200786AF6D221B224801A786AE6C3940850C2
:100A820007E6062461F8A607BF0A08786A7600D24C
:030A920022B22469
:090A9500D007D000D0D0D0E0322F
:03005300020CA0FC
:100CA000C0E0C0D075D000C00053E57F7869E66031
:100CB0001A786D760A786BE6062434F8E6F5E7785C
:100CC0006BE62434F8E670037869F6D000D0D0D013
:020CD000E03210
:03006B00020BC4C1
:100BC400C0E0C0F0C083C082C0D075D000C000C0F7
:100BD40001C002C003C004C005C006C007120AF465
:100BE400D007D006D005D004D003D002D001D00065
:0B0BF400D0D0D082D083D0F0D0E0320F
:0300830002004A2E
:01004A003283
:0300A300020B3E0F
:100B3E00C0E0C0D075D000C000C007B21430142D74
:100B4E00787D06E6D3943B40247600787406E6D38F
:100B5E00943B40197600787E06E6D39417400E76C5
:100B6E00007879E625E0FFF6BF80027601D007D047
:060B7E0000D0D0D0E032EF
:070F8B00E5E530E5FBAFE7EF
:010F9200223C
:080F9300E4F5ECF5EBF5F522A5
:0D0F2F0075B29275B47C43AA0243B2012250
:0D0F3C0075C61875C28A43AA1043C201226F
:100E330020261275E30275E20643E3ECE4F5E4755C
:080E4300E66743A918D226223C
:100EA10030260CE4F5E3F5E2F5E4F5E653A9E7C2F3
:020EB1002622F7
:080F9B00E5E530E7FB8FE722DA
:040FB700438D202224
:090F7900758E01758DC0020FB7E1
:0D0F4900759E80759F01759F8143AB04224A
:070FA30075D928E4F58A224C
:100A9E007589F6E4F5D4F592F5E9F5807591F07562
:100AAE00D50FF593F5EAF5887599FFF5D6F594F51A
:100ABE009075A1FFF5D7F595F59875B1FFF5DAF5B7
:100ACE0096F5A075B95FF5DBF59AF5B075C1F1F540
:100ADE00DCF59BF5C0F5EDF5EEF5EFF5F175F318D8
:060AEE00F5F275F40C2284
:0C0F6300E4F552F551F550F54FF54E2223
:0A0F6F00E4787AF67883F6C21122C6
:10000300AF51AE50AD4FAC4EEC4D4E4F60387871A2
:1000130006E6C394324004E4F6B210784E74FF123D
:100023000652E4FBFAF9F8C312063F7019E5526071
:100033001524E870057F17020F21E4755106F5506A
:07004300F54FF54EF55222C6
:100DB000787EE67873F608E67882F6E4FF788206B5
:100DC000E6C3943C400CE4F6787306E694184002BF
:060DD000E4F60FBF09E785
:010DD60022FA
:100056002012117876E6600CC213120DB0E4FF127E
:050066000F21D212225F
:100D0300787DE6FF7887666025A6077874E6FF7826
:100D13008166601AA6077872E6FF787E66600F78B0
:0F0D230072A607787C06E6C394184002E4F62215
:1009EA00E52CB40225787806E618700106C37878F3
:1009FA00E694B818E6940B4043E4F52CF527F6087C
:100A0A00F6787EA6297874A62A22E510B4022D78F3
:100A1A007806E618700106C37878E694B818E69462
:100A2A000B4019E4F510F527F608F6850C0A850D32
:0D0A3A000B751301F551F550F54FF54E22E7
:100AF400D2157886E6FF7002D216EFB40102D2173F
:100B0400EFB40202D219EFB40302D21AEFB4040212
:100B1400D21BEFB40502D21CEFB40612786D16E6B0
:100B240070037869F6786C16E67003786AF678864E
:0A0B340006E6C3940A4002E4F6222C
:100D8800754D03751903751102753301788476085A
:100D9800E408F6D21ED218D214787DF67874F67864
:080DA8007EF6754B02C2132216
:100B8400120D88301502C215301608C216120FB1A4
:100B94001200A6301705C217120696301902C219A0
:100BA400301A05C21A120C6C301B05C21B1200034A
:100BB400301C08C21C1209EA120D03120FB780C3BD
:1007D900E4FFFEE588540F640F60254388204388B1
:1007E90020438820438820E588540FFF5388CF434E
:1007F9008810438810438810438810E588540FFEF9
:100809005388CFBF0E06BE0F037F0122BF0D06BE60
:100819000F037F0222BF0B06BE0F037F0322BF0710
:1008290006BE0F037F0422BF0F06BE0E037F0522FB
:10083900BF0F06BE0D037F0622BF0F06BE0B037F47
:100849000722BF0F06BE07037F0822BF0E06BE0E92
:10085900037F0922BF0D06BE0E037F0A22BF0F06C2
:08086900BE0C037F0B227F008F
:010871002264
:030FBB001207D941
:010FBE002210
:10073A00E4F525E5316F600BE5326F60038F3222F5
:10074A008F3122E53165307051E53070030207D8E8
:10075A00E528607A1528E528707485302EE526701C
:10076A0003752501E52F14601414601B1460182406
:10077A0003705B752F01432E2075283222752F02D4
:10078A00432E6075281422752F03432E8075281472
:10079A00E52DC394FA5037052D22E5306025F52E54
:1007AA00E5267003752501E52F24FE600C14600B05
:1007BA002402700A432E4080058000432EC0E4F5CF
:0F07CA002F8005E4F526F52D75280585313022A1
:060FB100120FBB02073A1B
:1000A600E5257003020324E52E12067000E64100E2
:1000B600FC42017E4301994401A845024C4602CA0E
:1000C6004702DF4803094A03174B02D46700FC8244
:1000D600024C8602EB8903098A03178B000003246E
:1000E600E50EB40104751201221519E51960030223
:1000F600032475190322E527B40112E54DB4030D57
:10010600E529C3940C4003020324052922E527B4FC
:100116000211E54DB4030CE52AC3943B504A052A67
:10012600020276E527B40312E508B4010DE50CC317
:10013600940C4003020324050C22E527B40412E5BF
:1001460008B4010DE50DC3943B4003020324050DDD
:1001560022E527B40515E508B40110E511B402053A
:1001660075110180037511020202767884E6C39444
:100176000F40030203240622E533D3940050030202
:100186000324202507D225786F760122C225786FB1
:10019600760222E533D394005003020324786F7667
:1001A6000422E527B4010E7F05120F21752702757B
:1001B6002C02E48012E527B40212E4F527787EA625
:1001C600297874A62AF52C7877F608F6E54DB40357
:1001D60004E5276005E513B401127F0F120F2175A0
:1001E6002703750801751002E4F51322E527B40309
:1001F6000FE508B4010A7F0D120F2175270480123E
:10020600E527B40413E508B4010E7F13120F217518
:100216002705751002020302E52764056003020341
:1002260024E50864016003020324752706F51078A7
:1002360077F608F6850C0A850D0B751301F551F551
:1002460050F54FF54E22E527B40112E54DB4030DE6
:10025600E529D394005003020324152922E527B487
:100266000211E54DB4030CE52AD394004002152A89
:10027600020302E527B40312E508B4010DE50CD329
:1002860094005003020324150C22E527B40412E55A
:1002960008B4010DE50DD394005003020324150D97
:1002A60022E527B40514E508B4010FE511B40205EB
:1002B600751101800375110280427884E6D394009B
:1002C600405C1622E5336401605475330122E52D46
:1002D600640A704A786F760522E533D39400403E6F
:1002E600786F760322E54D64037033E52D640A705A
:1002F6002D7F04120F21752701752C02E47877F6FD
:1003060008F622E54DB40316E52DB40A11787E06EB
:0F03160022E54DB40308E52DB40A03787E1622C4
:100DD7003F065B4F666D7D077F6F005F7C585E74D3
:100DE70006545C50781C6E773979713D76061E384B
:060DF700373F736D3E4022
:100E4B00EF75F00A84F514EF75F00A8485F015E55B
:070E5B0014700375140A2254
:100EC500EF75F00A84F516EF75F00A8485F01722A0
:090F82007885E66002D322C32247
:100D3200EF146007047006AE298002AE0C30181A58
:100D4200EEC3940C5004D2088006D20974F42EFE2D
:0A0D5200EE70027E0CAF06120E4B8D
:010D5C002274
:100EB300EF146007047006AE2A8002AE0DAF06027F
:020EC3000EC55A
:100C3800EF14600904700AAE29AD2A8004AE0CAD29
:100C48000D30181FEEC3940C5004D2088006D20948
:100C580074F42EFEEE70027E0CAF06120E4BAF053A
:030C6800120EC5A4
:010C6B002266
:070FAA00D2057F01020C38A3
:10006E00201005120F825007D2057F01020C387F37
:05007E0001120EB32287
:100E6200201005120F825007D2057F01020C387F35
:050E720001120D322207
:05004E007F01020C38E7
:100ED500201005120F825007D2057F01120C38220F
:100E7700201005120F825007D205E4FF020C38E458
:050E8700FF120EB32272
:100E8C00201005120F825007D205E4FF020C38E443
:050E9C00FF120D3222DF
:100EE500201005120F825007D205E4FF120C38229C
:0E0F0500301E03301407D205E4FF120C382210
:0E0F1300201005120F825005AF4B120EC522A2
:0F0EF5007F057814740AF608DFFCE4F520F52178
:010F040022CA
:0D0F560075140A75153375162A75172A22B1
:100DFD00E511B40203D20022E511B4010EE508B4E9
:0C0E0D000107E5127003D20F22D20F2261
:10098700E55212067009AE0109B30309B80409BD9F
:100997000509C20609C70909D10D09CC0F09D613E4
:1009A70009DB1A000009E0120FAA8030120EE58059
:1009B7002B120E778026120E8C8021120F13801CAB
:1009C700120ED5801712006E8012120E62800D1261
:1009D700004E8008120F568003120F057885E660D7
:0309E700011622D4
:100CD200E5526403602AE5B030E508E52764056063
:100CE20002D20FE55264136005E508B40112E55221
:100CF200B4130B201005120F825005020DFDD20114
:010D020022CE
:0E0F21008F52E4755110755027F54FF54E2292
:100C6C00201E0EAF51AE50AD4FAC4EEC4D4E4F6002
:100C7C0022120EF5120987120CD2E4FF74142FF80D
:100C8C00E6900DD793FE74472FF8A6060FBF04EC21
:030C9C001203251B
:010C9F002232
:100E1900201E16AF51AE50AD4FAC4EEC4D4E4F703B
:0A0E290008E508B40103120DFD22D4
:1004DD002020202020200D0A20434F4D2B50410D70
:1004ED000A20434F4D2B50550D0A20434F4D2B5095
:1004FD00560D0A20434F4D2B504E0D0A20434F4DA4
:10050D002B50520D0A20434F4D2B41430D0A2043D2
:10051D004F4D2B5057440D0A434F4D2B44430D0A5D
:10052D0020434F4D2B5630300D0A434F4D2B563037
:10053D00310D0A434F4D2B5630320D0A434F4D2B83
:10054D005630330D0A434F4D2B5630340D0A434F61
:10055D004D2B5630350D0A434F4D2B5630360D0A67
:10056D00434F4D2B5630370D0A434F4D2B563038D8
:10057D000D0A434F4D2B5630390D0A434F4D2B5617
:10058D0031300D0A434F4D2B5631310D0A434F4D2E
:10059D002B5631320D0A434F4D2B5631330D0A4335
:1005AD004F4D2B5631340D0A434F4D2B5631350DD2
:1005BD000A434F4D2B5631360D0A00010203040537
:0A05CD00060708090A0B0C0D0E0FBB
:100BFF007869E670FB7F087834E4F608DFFCE4FFE1
:100C0F001205D7FE601074342FF8A606740129F967
:100C1F00E43AFA0F80EAE4786BF678697601786B3C
:080C2F00E6062434F8E6F5E7BF
:010C3700229A
:100D5D00EFC39409500CEF75F009A424DDF9740468
:100D6D0080107884E69005C79375F009A4242EF9B8
:0A0D7D00740535F0FA7BFF120BFF3E
:010D87002249
:1008FE0020210620220302098630210DC2217556C1
:10090E0000755700755859800BC2227556007557E1
:10091E0000755861AB56AA57A9581205D764427094
:10092E00429000011205F0645470389000031205D5
:10093E00F0FFB4430B9000041205F0B44E02D22027
:10094E00EFB4500B9000041205F0B44102D2259082
:10095E0000031205F0B4200B9000041205F0B42031
:10096E0002D225E4FFAB56AA57A9588F8275830091
:08097E00E412061D0FBF08ED95
:01098600224E
:10069600E53364017066201F117870F6C220C2250A
:1006A6007884E6F4786EF6E4F53CD21FE53C1460F7
:1006B6000F14601514601514601424047016805FFE
:1006C600120EA153C0FE053C22053C22805D120E8F
:1006D60033053C22E5B030E50AE52764056004D21F
:1006E6000FD21EE5C030E1107870E6D394054004C1
:1006F60043800222787006225380FD22301F0EE4CA
:100706007870F6F53CE5B020E50343B008E53C1407
:1007160060131460131460131460162404701453C9
:1007260080FD053C22053C22053C2243C001053CD8
:0407360022053C223A
:10032500301D0C7547FF7548FF7549FF754AFFE598
:10033500416547601DE54730E4054390048003535C
:1003450090FBE54730E50543A001800353A0FE85FA
:100355004741E5426548605EE54830E00543901059
:1003650080035390EFE54830E10543902080035327
:1003750090DFE54830E20543B001800353B0FEE568
:100385004830E30543B004800353B0FBE54830E44F
:100395000543A002800353A0FDE54830E5054390E1
:1003A5000880035390F7E54830E6054398808003BD
:1003B50053987F854842E5436549605EE54930E0ED
:1003C5000543980180035398FEE54930E1054398BC
:1003D5000280035398FDE54930E20543A0108003F0
:1003E50053A0EFE54930E30543B002800353B0FD68
:1003F500E54930E40543A020800353A0DFE54930FB
:10040500E505439080800353907FE54930E6054339
:10041500984080035398BF854943E544654A605E2B
:10042500E54A30E00543980880035398F7E54A30DC
:10043500E10543981080035398EFE54A30E2054300
:10044500A004800353A0FBE54A30E30543A0808068
:100455000353A07FE54A30E40543A008800353A079
:10046500F7E54A30E50543980480035398FBE54AD0
:1004750030E60543982080035398DF854A44E520FC
:100485006545602DE52030E00543800480035380F9
:10049500FBE52030E1057590FF8000E52030E4089C
:1004A50043904043A04080065390BF53A0BF854B67
:1004B50045E52165466020E52130E0035390FDE5E3
:1004C5002130E103439002E52130E70543B0088080
:0804D5000353B0F7854C4622E9
:010FC200220C
:10087E00020086E493A3F8E493A34003F68001F20A
:10088E0008DFF48029E493A3F85407240CC8C3337B
:10089E00C4540F4420C8834004F456800146F6DF4A
:1008AE00E4800B0102040810204080900FBFE47E0C
:1008BE00019360BCA3FF543F30E509541FFEE4933F
:1008CE00A360010ECF54C025E060A840B8E493A306
:1008DE00FAE493A3F8E493A3C8C582C8CAC583CA31
:1008EE00F0A3C8C582C8CAC583CADFE9DEE780BEE9
:010FC100002F
:1005D700BB010689828A83E0225002E722BBFE0222
:0905E700E32289828A83E4932255
:1005F000BB010CE58229F582E5833AF583E02250C0
:1006000006E92582F8E622BBFE06E92582F8E22209
:0D061000E58229F582E5833AF583E4932223
:10061D00F8BB010DE58229F582E5833AF583E8F013
:10062D00225006E92582C8F622BBFE05E92582C8BF
:02063D00F222A7
:10063F00EB9FF5F0EA9E42F0E99D42F0E89C45F011
:01064F002288
:100650007401FF3395E0FEFDFC080808E62FFFF665
:1006600018E63EFEF618E63DFDF618E63CFCF622DE
:10067000D083D082F8E4937012740193700DA3A319
:1006800093F8740193F5828883E47374029368602D
:06069000EFA3A3A380DF2D
:00000001FF
