:03000000020CCA25
:0C0CCA0078FFE4F6D8FD758199020D1149
:02146400C14382
:1000860053A87F120E691214481214301213C412A8
:0D00960013D11213DE43A880120F0D80FE5F
:03004B00020E1290
:0B0E1200C0E0C0D075D000C000C007D9
:100E1D00AFE753E5DB7895760A30401D7893E6C34E
:100E2D00940A5007E606247DF8A607EF640A70239E
:100E3D007893F6D23EB240801A7893E6C3940A5066
:100E4D0007E6062487F8A607BF0A0878937600D22E
:030E5D003FB24061
:090E6000D007D000D0D0D0E03260
:0300530002118017
:10118000C0E0C0D075D000C00053E57F7892E66023
:101190001A7896760A7894E606242AF8E6F5E7782F
:1011A00094E6242AF8E670037892F6D000D0D0D0E6
:0211B000E0322B
:03006B0002109FE1
:10109F00C0E0C0F0C083C082C0D075D000C000C017
:1010AF0001C002C003C004C005C006C007120F591B
:1010BF00D007D006D005D004D003D002D001D00085
:0B10CF00D0D0D082D083D0F0D0E0322F
:030083000210DA8E
:1010DA00C0E0C0F0C083C082C0D075D000C000C0DC
:1010EA0001C002C003C004C005C006C00712034104
:1010FA00D007D006D005D004D003D002D001D0004A
:0B110A00D0D0D082D083D0F0D0E032F3
:0300A30002000355
:10000300C0E0C0D075D000C000C007B23130312D80
:10001300787106E6D3943B40247600786606E6D3EF
:10002300943B40197600787206E6D39417400E7617
:1000330000786BE625E0FFF6BF80027601D007D09B
:0600430000D0D0D0E03235
:07142800E5E530E5FBAFE74D
:01142F00229A
:08143000E4F5ECF5EBF5F52203
:0D13C40075B29275B47C43AA0243B20122B7
:0D13D10075C61875C28A43AA1043C20122D6
:1012C40020431275E30275E20643E3ECE4F5E475AA
:0812D400E66743A918D243228A
:1013320030430CE4F5E3F5E2F5E4F5E653A9E7C240
:02134200432244
:08143800E5E530E7FB8FE72238
:04145C00438D20227A
:09140D00758E01758DC002145C9E
:0B13F800E4F59EF59FF59F53ABFB2230
:0D13DE00759E80759F01759F8143AB0422B1
:0714480075D928E4F58A22A2
:100E69007589F675D401E4F592F5E9F5807591F087
:100E790075D50FF593F5EAF5887599FFF5D6F594CB
:100E8900F59075A1FFF5D7F595F59875B1FFF5DAE8
:100E9900F596F5A075B95FF5DBF59AF5B075C1F171
:100EA900F5DCF59BF5C0F5EDF5EEF5EFF5F175F32C
:070EB90018F5F275F40C229C
:08144000E4F558F556F55722BA
:0A140300E4786CF67877F6C22E222A
:10111500E55745566030785F06E6C394324004E4EF
:10112500F6B22DE55715577002155614455670162B
:10113500E558601224E870057F1702141F755600E4
:07114500755706E4F558227E
:010049002294
:10005600202F117868E6600CC230120049E4FF12C6
:05006600141FD22F223F
:10106300751903D212D215D211D214D218D21BD2AF
:101073001ED221D224D213D217D21AD21DD220D2F9
:1010830023D226D216D219D21CD21FD222D225D2D3
:0C10930027D210D228D229D22AD22B2238
:100FA3001555E555703B1213DEC212C215C211C2AC
:100FB30014C218C21BC21EC221C224C213C217C24A
:100FC3001AC21DC220C223C226C216C219C21CC223
:100FD3001FC222C225C227C210C228C229C22AC2E6
:020FE3002B22BF
:1011B2001213F8303202C232303302C233303402F8
:1011C200C234303602C236303702C237303805C236
:0F11D20038121063303905C239120FA302145CB2
:1009D5007871E6FF787C667003020A65A60778667B
:1009E500E6FF7875666079A607E508B4010D7872AB
:1009F500E6B50A07EFB50B03750E01E5086401704E
:100A050047E50E64017041787B06E6C3943C4008D7
:100A1500E4F508F50EF512F6E512B4012B7862122D
:100A2500087EEF2401FFE43EFEE43DFDE43CFC7856
:100A350062120897E47F09FEFDFC786212088AC3FA
:100A450012086D4003E4F5127860E6FF787266607F
:100A55000F7860A607787006E6C394184002E4F69E
:100A6500E50864017059E50E64017053E51270489C
:100A7500E51164017039303D057898760222786D6C
:100A8500E6FE08E6FF7C007D0A120818EF4E7004AA
:100A950078987606786E06E618700106C3786EE6D5
:100AA50094B818E6940B4017203D1475110222E501
:100AB50011B4020B438004225380FB7898760122FF
:100DB900E541B40225786A06E618700106C3786A27
:100DC900E694B818E6940B403FE4F541F53CF60883
:100DD900F67872A63E7866A63F22E510B402297815
:100DE9006A06E618700106C3786AE694B818E694AC
:100DF9000B4015E4F510F53CF608F6850C0A850D4F
:090E09000B751301F556F5572293
:100F5900D232787AE6FF7002D233EFB40102D2348A
:100F6900EFB40202D236EFB40302D237EFB404026F
:100F7900D238EFB40502D239EFB40612789616E6E4
:100F890070037892F6789516E670037893F6787A76
:0A0F990006E6C3940A4002E4F622C3
:10120D007554037519037511027529017555C87843
:10121D00787608E408F6D23BD235D2317871F6787B
:0B122D0066F67872F6755202C230229D
:100F0D0012120DE55560051211B280F7303202C292
:100F1D0032303308C2331214561200A62034033077
:100F2D003607C234C236120AC5303705C237121120
:100F3D00E1303805C23812111530390BC239120D96
:0C0F4D00B91209D512128912145C80C080
:100C3100E4FFFEE588540F640F6025438820438854
:100C410020438820438820E588540FFF5388CF43F1
:100C51008810438810438810438810E588540FFE9C
:100C61005388CFBF0E06BE0F037F0122BF0D06BE04
:100C71000F037F0222BF0B06BE0F037F0322BF07B4
:100C810006BE0F037F0422BF0F06BE0E037F05229F
:100C9100BF0F06BE0D037F0622BF0F06BE0B037FEB
:100CA1000722BF0F06BE07037F0822BF0E06BE0E36
:100CB100037F0922BF0D06BE0E037F0A22BF0F0666
:080CC100BE0C037F0B227F0033
:010CC9002208
:03146000120C313A
:011463002266
:100B9200E4F53AE5466F600BE5476F60038F472245
:100BA2008F4622E54665457051E5457003020C30DB
:100BB200E53D607A153DE53D7074854543E53B7042
:100BC20003753A01E54414601414601B1460182480
:100BD20003705B754401434320753D322275440224
:100BE200434360753D1422754403434380753D14AD
:100BF200E542C394FA5037054222E5456025F543A4
:100C0200E53B7003753A01E54424FE600C14600B69
:100C12002402700A434340800580004343C0E4F548
:0F0C2200448005E4F53BF542753D0585464522C6
:06145600121460020B926B
:1000A600E53A7003020340E5431208A300E9410064
:1000B600FF4201814301B94401C84502684602E690
:1000C6004702FB4803254A03334B00FF8201AB83FB
:1000D60002688602F08703078903258A03338B00AB
:1000E600000340E50EB40104751201221519E51945
:1000F600600302034075190322E53CB40112E5547E
:10010600B4030DE53EC3940C4003020340053E22B2
:10011600E53CB40211E554B4030CE53FC3943B50EF
:100126004A053F020292E53CB40312E508B4010D0C
:10013600E50CC3940C4003020340050C22E53CB4D5
:100146000412E508B4010DE50DC3943B4003020318
:1001560040050D22E53CB40515E508B40110E5118E
:10016600B4020575110180037511020202927878B6
:10017600E6C3940F40030203400622E529B40107B3
:1001860020421BD2428010E529640260030203402C
:10019600204109D241C2427898760122C241C24228
:1001A6007898760222E542640A6003020340789852
:1001B600760722E529D39400500302034078987607
:1001C6000422E53CB4010E7F0512141F753C02752E
:1001D6004102E48012E53CB40212E4F53C7872A6D2
:1001E6003E7866A63FF5417869F608F6E554B4030D
:1001F60004E53C6005E513B401127F0F12141F7568
:100206003C03750801751002E4F51322E53CB403BE
:100216000FE508B4010A7F0D12141F753C04801205
:10022600E53CB40413E508B4010E7F1312141F75E0
:100236003C0575100202031EE53C640560030203DB
:1002460040E50864016003020340753C06F510783A
:1002560069F608F6850C0A850D0B751301F556F53A
:100266005722E53CB40112E554B4030DE53ED394A0
:10027600005003020340153E22E53CB40211E5544A
:10028600B4030CE53FD394004002153F02031EE57C
:100296003CB40312E508B4010DE50CD394005003F9
:1002A600020340150C22E53CB40412E508B4010D26
:1002B600E50DD394005003020340150D22E53CB42E
:1002C6000514E508B4010FE511B4020575110180A6
:1002D6000375110280427878E6D39400405C1622BA
:1002E600E5296401605475290122E542640A704AD1
:1002F6007898760522E529D39400403E78987603CF
:1003060022E55464037033E542640A702D7F0412BB
:10031600141F753C01754102E47869F608F622E57A
:1003260054B40316E542B40A1178720622E554B4B1
:0B0336000308E542B40A0378721622A7
:101263003F065B4F666D7D077F6F005F7C585E7442
:1012730006545C50781C6E773979713D76061E38BA
:06128300373F736D3E4091
:1012DC00EF75F00A84F514EF75F00A8485F015E5C6
:0712EC0014700375140A22BF
:10136800EF75F00A84F516EF75F00A8485F01722F8
:091416007879E66002D322C322BA
:10123800EF146007047006AE3E8002AE0C30351A1B
:10124800EEC3940C5004D2088006D20974F42EFE22
:0A125800EE70027E0CAF061212DCED
:011262002269
:10134400EF146007047006AE3F8002AE0DAF0602D4
:0213540013681C
:10114C00EF14600904700AAE3EAD3F8004AE0CADE6
:10115C000D30351FEEC3940C5004D2088006D20912
:10116C0074F42EFEEE70027E0CAF061212DCAF058C
:03117C00121368E3
:01117F00224D
:07144F00D2057F0102114CE0
:10006E00202D051214165007D2057F0102114C7F68
:05007E000112134422F1
:1012F300202D051214165007D2057F0102114C7FD1
:05130300011212382266
:05004E007F0102114CCE
:10137800202D051214165007D2057F0112114C2298
:10130800202D051214165007D205E4FF02114CE4F3
:05131800FF1213442246
:10131D00202D051214165007D205E4FF02114CE4DE
:05132D00FF121238223E
:10138800202D051214165007D205E4FF12114C2225
:0E13A800303B03303107D205E4FF12114C2216
:0E13B600202D051214165005AF521213682296
:0F1398007F057814740AF608DFFCE4F520F521D0
:0113A7002223
:0D13EB0075140A75153375162A75172A2218
:1012A800E511B40203D20022E511B4010EE508B439
:0C12B8000107E5127003D20F22D20F22B2
:100D5600E5581208A30D7D010D82030D87040D8C45
:100D6600050D91060D96090DA00D0D9B0F0DA513F2
:100D76000DAA1A00000DAF12144F8030121388808E
:100D86002B121308802612131D80211213B6801C05
:100D9600121378801712006E80121212F3800D1251
:100DA600004E80081213EB80031213A87879E660D0
:030DB60001162201
:10102500E55864036037E5B030E515E53C640560D7
:101035000FE529B40106D20FC2038004D203C20F03
:10104500E55864136005E508B40112E558B4130BBF
:0E105500202D0512141650050212A8D20122F9
:09141F008F5875562775571022ED
:1011E100203B06E55745566022121398120D561200
:1011F1001025E4FF74142FF8E690126393FE744EE9
:0B1201002FF8A6060FBF04EC12050931
:01120C0022BF
:10135600203B0EE55745567008E508B40103121206
:02136600A822BB
:100697002020202020200D0A00434F4D2B50410DD4
:1006A7000A00434F4D2B50550D0A00434F4D2B5019
:1006B700560D0A00434F4D2B504E0D0A00434F4D28
:1006C7002B50520D0A00434F4D2B41430D0A004357
:1006D7004F4D2B49510D0A00434F4D2B44430D0AF3
:1006E70000434F4D2B5057440D0A00434F4D2B4DA0
:1006F70053440D0A00434F4D2B4D42540D0A0043FE
:100707004F4D2B5630300D0A00434F4D2B5630318D
:100717000D0A00434F4D2B5630320D0A00434F4D03
:100727002B5630330D0A00434F4D2B5630340D0AEC
:1007370000434F4D2B5630350D0A00434F4D2B5676
:1007470030360D0A00434F4D2B5630370D0A004304
:100757004F4D2B5630380D0A00434F4D2B5630392D
:100767000D0A00434F4D2B5631300D0A00434F4DB4
:100777002B5631310D0A00434F4D2B5631320D0A9E
:1007870000434F4D2B5631330D0A00434F4D2B5627
:1007970031340D0A00434F4D2B5631350D0A0043B6
:0907A7004F4D2B5631360D0A00AE
:100FE5007892E670FB7F0A782AE4F608DFFCE4FFD6
:100FF5007891E6FEEFC39E50141207B0FE742A2FB7
:10100500F8A606740129F9E43AFA0F80E3E4789426
:0F101500F6789276017894E606242AF8E6F5E755
:0110240022A9
:100EC0008F1FE51FC394095017EF75F009A42497ED
:100ED000F9740635F0FA7BFF120FE5789176082257
:100EE000E51FC3940C500DE51F75F00AA4248EF97C
:100EF0007406800C7878E675F00AA42406F9740765
:0D0F000035F0FA7BFF120FE57891760A229A
:1008C900203E06203F030209D4303E0DC23E755C2E
:1008D90000755D00755E7D800BC23F755C00755DBE
:1008E90000755E87AB5CAA5DA95E1207B0FF644222
:1008F900705C9000011207C9645470529000031291
:1009090007C9FEB4430E9000041207C9B44E05D2BC
:100919003D753402EEB4500B9000041207C9B4417E
:1009290002D2429000031207C9B4500B900004127E
:1009390007C9B45502C2429000031207C9B4570E41
:100949009000041207C9B45005753401C23DEF6423
:1009590053702E9000011207C9644470249000035B
:100969001207C9FFB4500B9000041207C9B4410221
:10097900D241EFB4500B9000041207C9B45502C21A
:10098900411207B06441702E9000011207C96458E2
:1009990070249000031207C9FFB4500B9000041291
:1009A90007C9B44102D242EFB4500B9000041207B8
:1009B900C9B45502C242E4FFAB5CAA5DA95E8F824D
:0B09C900758300E41207F60FBF0AED73
:0109D4002200
:100AC500E52964016009E52964026003020B5A20E7
:100AD5003C12E47899F6C23DC2427878E6F47897FC
:100AE500F6E4F535D23CE53514600F146015146055
:100AF5001514601424047016807E12133253C0FE40
:100B0500053522053522807C1212C4053522E5B053
:100B150030E50AE53C64056004D20FD23B7878E6FF
:100B2500FF7897666009A6077F0C120EC0800D78C6
:100B350098E6FF6007120EC0E47898F6E5C030E14C
:100B4500107899E6D39405400443800222789906EB
:100B5500225380FD22303C0EE47899F6F535E5B058
:100B650020E50343B008E5351460131460131460E1
:100B750013146016240470145380FD0535220535C1
:0D0B85002205352243C00105352205352229
:10050900303A0C754EFF754FFF7550FF7551FFE579
:1005190048654E6019E54E30E404D2128002C212D9
:10052900E54E30E504D2158002C215854E48E549ED
:10053900654F6050E54F30E004D2118002C211E5E9
:100549004F30E104D2148002C214E54F30E204D2E4
:10055900188002C218E54F30E304D21B8002C21B87
:10056900E54F30E404D21E8002C21EE54F30E50497
:10057900D2218002C221E54F30E604D2248002C292
:1005890024854F49E54A65506050E55030E004D272
:10059900138002C213E55030E104D2178002C2175A
:1005A900E55030E204D21A8002C21AE55030E30461
:1005B900D21D8002C21DE55030E404D2208002C25F
:1005C90020E55030E504D2238002C223E55030E60D
:1005D90004D2268002C22685504AE54B65516050F7
:1005E900E55130E004D2168002C216E55130E1042B
:1005F900D2198002C219E55130E204D21C8002C22C
:100609001CE55130E304D21F8002C21FE55130E4DA
:1006190004D2228002C222E55130E504D2258002AB
:10062900C225E55130E604D2278002C22785514B05
:10063900E520654C6035E52030E005438004800302
:100649005380FBE52030E104D2288002C228E5204E
:1006590030E304D22C8002C22CE52030E406D229F2
:10066900D22A8004C229C22A85524CE521654D60EF
:100679001CE52130E002C210E52130E102D210E58B
:0E0689002130E704D22B8002C22B85534D2274
:10034100151BE51B70575390FB53A0FE5390EF53C1
:1003510090DF53B0FE53B0FB53A0FD5390F7539879
:100361007F5398FE5398FD53A0EF53B0FD53A0DF88
:1003710053907F5398BF5398F75398EF53A0FB5373
:10038100A07F53A0F75398FB5398DF5390FD5390F0
:10039100FE5390BF53A0BF53B0F753B0EF151EE506
:1003A1001E6003020508E519B40105751B6480127E
:1003B100E519B40205751BAF8008E519B40303758F
:1003C1001BFFE51B700302050830120543900480F2
:1003D100035390FB30150543A001800353A0FE3069
:1003E100110543901080035390EF30140543902082
:1003F10080035390DF30180543B001800353B0FEF2
:10040100301B0543B004800353B0FB301E0543A0ED
:1004110002800353A0FD30210543900880035390CF
:10042100F7302405439880800353987F30130543A8
:10043100980180035398FE301705439802800353B7
:1004410098FD301A0543A010800353A0EF301D051D
:1004510043B002800353B0FD30200543A020800348
:1004610053A0DF302305439080800353907F3026D3
:100471000543984080035398BF3016054398088080
:10048100035398F730190543981080035398EF30C0
:100491001C0543A004800353A0FB301F0543A0802B
:1004A100800353A07F30220543A008800353A0F7A7
:1004B10030250543980480035398FB302705439862
:1004C1002080035398DF301005439002800353903E
:1004D100FD30280543900180035390FE30290543E8
:1004E100904080035390BF302A0543A040800353BE
:1004F100A0BF302B0543B008800353B0F7302C0464
:0805010043B0102253B0EF22B9
:10128900E58020E00DE529B40114752902789876E6
:0F1299000A22E529B402077529017898760B22FD
:100CD600020086E493A3F8E493A34003F68001F2AE
:100CE60008DFF48029E493A3F85407240CC8C3331F
:100CF600C4540F4420C8834004F456800146F6DFEE
:100D0600E4800B0102040810204080901464E47E05
:100D1600019360BCA3FF543F30E509541FFEE493E2
:100D2600A360010ECF54C025E060A840B8E493A3A9
:100D3600FAE493A3F8E493A3C8C582C8CAC583CAD4
:100D4600F0A3C8C582C8CAC583CADFE9DEE780BE8C
:011466000085
:1007B000BB010689828A83E0225002E722BBFE0247
:0907C000E32289828A83E493227A
:1007C900BB010CE58229F582E5833AF583E02250E5
:1007D90006E92582F8E622BBFE06E92582F8E2222F
:0D07E900E58229F582E5833AF583E4932249
:1007F600F8BB010DE58229F582E5833AF583E8F039
:10080600225006E92582C8F622BBFE05E92582C8E4
:02081600F222CC
:10081800BC000BBE0029EF8DF084FFADF022E4CCC4
:10082800F875F008EF2FFFEE33FEEC33FCEE9DEC8D
:10083800984005FCEE9DFE0FD5F0E9E4CEFD22EDD3
:10084800F8F5F0EE8420D21CFEADF075F008EF2F1D
:10085800FFED33FD4007985006D5F0F222C398FD0E
:050868000FD5F0EA22AB
:10086D00EB9FF5F0EA9E42F0E99D42F0E89C45F0E1
:01087D002258
:0C087E00E6FC08E6FD08E6FE08E6FF22A6
:0D088A00E6FB08E6F908E6FA08E6CBF822DE
:0C089700ECF608EDF608EEF608EFF6228D
:1008A300D083D082F8E4937012740193700DA3A3E4
:1008B30093F8740193F5828883E4737402936860F8
:0608C300EFA3A3A380DFF8
:00000001FF
