:03000000020EAB42
:0C0EAB0078FFE4F6D8FD75819F020EF27E
:02004800C143B2
:1000860053A87F12105412178B12178412176C1272
:0D00960016F412170143A8801211A680FE77
:03004B000210ACF4
:0B10AC00C0E0C0D075D000C000C0073D
:1010B700AFE753E5DB789B760A30401D7899E6C3A6
:1010C700940A5007E6062483F8A607EF640A7023FC
:1010D7007899F6D23EB240801A7899E6C3940A50BE
:1010E70007E606248DF8A607BF0A0878997600D286
:0310F7003FB240C5
:0910FA00D007D000D0D0D0E032C4
:030053000214672D
:10146700C0E0C0D075D000C00053E57F7898E66033
:101477001A789C760A789AE6062438F8E6F5E7782B
:101487009AE62438F8E670037898F6D000D0D0D0E2
:02149700E03241
:03006B0002134F2E
:10134F00C0E0C0F0C083C082C0D075D000C000C064
:10135F0001C002C003C004C005C006C00712128737
:10136F00D007D006D005D004D003D002D001D000D2
:0B137F00D0D0D082D083D0F0D0E0327C
:0300830002138ADB
:10138A00C0E0C0F0C083C082C0D075D000C000C029
:10139A0001C002C003C004C005C006C007120591FF
:1013AA00D007D006D005D004D003D002D001D00097
:0B13BA00D0D0D082D083D0F0D0E03241
:0300A30002123D09
:10123D00C0E0C0D075D000C000C007B23130312D34
:10124D00787706E6D3943B40247600786B06E6D398
:10125D00943B40197600787806E6D39417400E76C5
:10126D00007870E625E0FFF6BF80027601A231928C
:0A127D0004D007D000D0D0D0E0323A
:07176400E5E530E5FBAFE70E
:01176B00225B
:10165300EF6007E5974401FF8005E59754FEFF8F90
:021663009722CC
:07178400E4F597758FF922CF
:08176C00E4F5ECF5EBF5F522C4
:0D16F40075B29275B47C43AA0243B2012284
:0D17010075C61875C28A43AA1043C20122A2
:1015E50020431275E30275E20643E3ECE4F5E47586
:0815F500E66743A918D2432266
:1016650030430CE4F5E3F5E2F5E4F5E653A9E7C20A
:0216750043220E
:08177400E5E530E7FB8FE722F9
:04004E00438D20229C
:09174900758E01758DC002004E81
:0B173400E4F59EF59FF59F53ABFB22F0
:0D170E00759E88759F01759F8043AB042276
:07178B0075D929E4F58A225B
:101054007589F675D401E4F592F5E9F5807591F09A
:1010640075D50FF593F5EAF5887599FFF5D6F594DE
:10107400F59075A1FFF5D7F595F59875B1FFF5DAFB
:10108400F596F5A075B95FF5DBF59AF5B075C1F184
:10109400F5DCF59BF5C075ED02F5EEF5EFF5F175B0
:0810A400F318F5F275F40C22BB
:08177C00E4F54CF54AF54B229F
:0A173F00E47871F6787DF6C22E22E0
:1013C500E54B454A6030786406E6C394324004E450
:1013D500F6B22DE54B154B7002154A14454A7016A9
:1013E500E54C601224E870057F1702175B754A000B
:0713F500754B06E4F54C22E4
:01005200228B
:10005600202F11786DE6600CC230120052E4FF12B8
:05006600175BD22F2200
:10131300751A03D212D215D211D214D218D21BD2FB
:101323001ED221D224D213D217D21AD21DD220D246
:1013330023D226D216D219D21CD21FD222D225D220
:0C13430027D210D228D229D22AD22B2285
:1012D1001549E549703B12170EC212C215C211C25F
:1012E10014C218C21BC21EC221C224C213C217C219
:1012F1001AC21DC220C223C226C216C219C21CC2F2
:101301001FC222C225C227C210C228C229C22AC2B4
:021311002B228D
:10149900121734303202C232303302C233303402CE
:1014A900C234303602C236303702C237303805C24C
:0F14B90038121313303905C2391212D102004E06
:1008DA007877E6FF7882667003020989A607786B43
:1008EA00E6FF787B667003020989A607E508B4016A
:1008FA00157878E6B50A0FEFB50B0BE50E7007759C
:10090A000E01789E7604E5086401705BE50E6401C9
:10091A007055788106E6C3943C4013E4F508F50E59
:10092A00F512F6E511B40106C242789E7604E51284
:10093A00B401347867120C22EF2401FFE43EFEE48E
:10094A003DFDE43CFC7867120C3BE47F09FEFDFCAC
:10095A007867120C2EC3120C11400C7867120C47E0
:10096A0000000000E4F5127865E6FF787866600F0B
:10097A007865A607787606E6C394184002E4F6E599
:10098A000864016003020A20E50E64016003020A9A
:10099A0020E5127070E5116401703C303D08204278
:1009AA0075789E7603227872E6FE08E6FF7C007D63
:1009BA000A120BBCEF4E7004789E7602787306E634
:1009CA0018700106C37873E694B818E6940B40468B
:1009DA00203D4375110222E51164027039438002F9
:1009EA00787506E6C3943250047F0180107875E664
:1009FA00FFC39432400AEF94375005E4FF021653BE
:100A0A00E47875F622E4FF1216535380FD3042064D
:070A1A00C242789E7604221F
:100F9A00E530B40227786F06E618700106C3786F49
:100FAA00E694B818E6940B4043E4F530F52BF608BE
:100FBA00F67878A62D786BA62EF54C22E510B402A9
:100FCA002B786F06E618700106C3786FE694B81896
:100FDA00E6940B4017E4F510F52BF608F6850C0A93
:0D0FEA00850D0B751301F54AF54BF54C22F2
:10128700D2327880E6FF7002D233EFB40102D23453
:10129700EFB40202D236EFB40302D237EFB404023E
:1012A700D238EFB40502D239EFB40612789C16E6AD
:1012B70070037898F6789B16E670037899F678802D
:0A12C70006E6C3940A4002E4F62292
:1014C800754803751A03751102E4F53753C0FE75A4
:1014D80049C8787E760808F6D23BD235D23178777B
:0F14E800F6786BF67878F6754602F545C2302235
:1011A6001214C8E549600512149980F7303202C25C
:1011B60032303308C2331217A01200A6203403308F
:1011C6003607C234C236120C86303705C2371214BF
:1011D600F7303805C2381213C530390BC239120F31
:0C11E6009A1208DA12110312004E80C0A9
:100E1200E4FFFEE588540F640F6025438820438871
:100E220020438820438820E588540FFF5388CF430E
:100E32008810438810438810438810E588540FFEB9
:100E42005388CFBF0E06BE0F037F0122BF0D06BE21
:100E52000F037F0222BF0B06BE0F037F0322BF07D1
:100E620006BE0F037F0422BF0F06BE0E037F0522BC
:100E7200BF0F06BE0D037F0622BF0F06BE0B037F08
:100E82000722BF0F06BE07037F0822BF0E06BE0E53
:100E9200037F0922BF0D06BE0E037F0A22BF0F0683
:080EA200BE0C037F0B227F0050
:010EAA002225
:0317A600120E120E
:0117A900221D
:100D7300E4F529E5356F600BE5366F60038F3622A6
:100D83008F3522E53565347051E5347003020E1159
:100D9300E52C607A152CE52C7074853432E52A70C5
:100DA30003752901E53314601414601B14601824BF
:100DB30003705B753301433220752C322275330285
:100DC300433260752C1422753303433280752C141F
:100DD300E531C394FA5037053122E5346025F53205
:100DE300E52A7003752901E53324FE600C14600BBA
:100DF3002402700A433240800580004332C0E4F588
:0F0E0300338005E4F52AF531752C058535342249
:0617A0001217A6020D73F2
:1000A600E529700302035EE532120C6000E94100A7
:1000B600FF42017E4301B64401C545026C4602E794
:1000C6004702FC4803304A03484B00FF8201A883DD
:1000D600026C8602F18703088903308A03488B0085
:1000E60000035EE50EB4010475120122151AE51A25
:1000F600600302035E751A0322E52BB40111E5487D
:10010600B4030CE52DC394185044052D02027FE577
:100116002BB40211E548B4030CE52EC3943B500200
:10012600052E02027FE52BB40311E508B4010CE5A8
:100136000CC394185002050C02027FE52BB404117F
:10014600E508B4010CE50DC3943B5002050D02020F
:100156007FE52BB40515E508B40110E511B40205D9
:10016600751101800375110202027F787EE6C39441
:100176000F400302035E0622E537B4010720421B47
:10018600D2428010E5376402600302035E20410913
:10019600D241C242789E760422C241C242789E76FD
:1001A6000322E531640A600302035E789E76072225
:1001B600E537D39400500302035E789E760622E567
:1001C6002BB4010B7F0512175B752B02020326E584
:1001D6002BB40214E4F52B7878A62D786BA62EF5B1
:1001E60030786EF608F68077E548B40304E52B60B0
:1001F60005E513B40118850A0C850B0D7F0F121740
:100206005B752B03750801751002E4F51322E52BC7
:10021600B4030FE508B4010A7F0D12175B752B04B2
:100226008012E52BB40413E508B4010E7F131217F0
:100236005B752B05751002020329E52B6405600327
:1002460002035EE5086401600302035E752B06F592
:1002560010786EF608F6850C0A850D0B751301F5F8
:100266004AF54BF54C22E52BB40111E548B4030CD5
:10027600E52DD394004002152D020329E52BB40287
:1002860011E548B4030CE52ED394004002152E0266
:100296000329E52BB40312E508B4010DE50CD3944C
:1002A60000500302035E150C22E52BB40410E5088A
:1002B600B4010BE50DD394004002150D8065E52BC6
:1002C600B40514E508B4010FE511B4020575110172
:1002D6008003751102804C787EE6D394004079162F
:1002E60022E5376401607175370122E531640A70D1
:1002F60067789E760122E537D39400405B789E7638
:100306000522E54864037050E531640A704A78783E
:10031600E6F52D786BE6F52E7F0412175B752B013B
:10032600753002E4786EF608F622E5486403702814
:10033600E54564016022E531B40A1D787806754505
:100346000122E548B40311E5456402600BE531B4CA
:090356000A0678781675450222AA
:10154B003F065B4F666D7D077F6F005F7C585E7457
:10155B0006545C50781C6E773979713D76061E38CF
:06156B00373F736D3E40A6
:1015FD00EF75F00A84F514EF75F00A8485F015E5A2
:07160D0014700375140A229A
:10168900EF75F00A84F516EF75F00A8485F01722D4
:09175200787FE66002D322C32275
:1013FC00EF14601224FE600A2403700C7878E6FE69
:10140C008006AE2D8002AE0C30351AEEC3940C5013
:10141C0004D2088006D20974F42EFEEE70027E0C03
:05142C00AF061215FDE2
:011431002298
:10159300EF14601224FE600A2403700C786BE6FEDD
:0D15A3008006AE2E8002AE0DAF0602168946
:1011F200EF14601824FE600E240370147878E6FE63
:10120200786BE6FD800AAE2DAD2E8004AE0CAD0DDE
:10121200303527EEC3940A40028E19EEC3940C5067
:1012220004D2088006D20974F42EFEEE70027E0CFF
:0A123200AF061215FDAF0512168974
:01123C00228F
:07179200D2057F010211F2F4
:10006E00202D051217525007D2057F010211F27F83
:05007E000112159322A0
:10161400202D051217525007D2057F010211F27FC7
:05162400011213FC227D
:0117AA00221C
:10169900202D051217525007D2057F011211F2228F
:10162900202D051217525007D205E4FF0211F2E4EA
:05163900FF12159322D1
:10163E00202D051217525007D205E4FF0211F2E4D5
:05164E00FF1213FC2255
:1016A900202D051217525007D2057F031211F2227D
:0E16D800203B03303107D205E4FF1211F2224D
:0E16E600202D051217525005AF46121689220C
:101523007F057814740AF608DFFCE54C6413601138
:10153300E5116402600BE50E640160055320108021
:0715430003E4F520E4F521AB
:01154A00227E
:0D171B0075140A75153375162A75172A22E4
:1015B000E511B40203D20022E511B4010EE508B42E
:0C15C0000107E5127003D20F22D20F22A7
:100F3700E54C120C600F5E010F63030F68040F6D21
:100F4700050F72060F77090F810D0F7C0F0F8613A0
:100F57000F8B1A00000F9012179280301216A9807B
:100F67002B121629802612163E80211216E6801CA7
:100F7700121699801712006E8012121614800D1225
:100F870017AA800812171B80031216D8787FE6600D
:030F97000116221E
:10115600E54C64036049E5B020E505E58030E31A17
:10116600E52B64056014E537B40106D20FC203808F
:1011760009E537B40204D203C20FE54C64136005D7
:10118600E508B4011AE54CB41313202D05121752C5
:1011960050081215B07F011211F2D20122D201229B
:09175B008F4C754A27754B1022D2
:1014F700203B06E54B454A6022121523120F37128F
:101507001156E4FF74142FF8E690154B93FE7455AB
:0B1517002FF8A6060FBF04EC120759C6
:0115220022A6
:10167700203B0EE54B454A7008E508B401031215F7
:02168700B0228F
:100A210020202020200D0A0042542B50520D0A0094
:100A310042542B41430D0A00434F4D2B50410D0AA7
:100A410000434F4D2B50550D0A00434F4D2B50562F
:100A51000D0A00434F4D2B504E0D0A00434F4D2BB5
:100A610049510D0A00434F4D2B44430D0A00434F9A
:100A71004D2B47560D0A00434F4D2B5057440D0A3D
:100A810000434F4D2B53444F0D0A00434F4D2B5301
:100A910044460D0A00434F4D2B4D53440D0A00436C
:100AA1004F4D2B4D42540D0A00434F4D2B563030C4
:100AB1000D0A00434F4D2B5630310D0A00434F4D67
:100AC1002B5630320D0A00434F4D2B5630330D0A51
:100AD10000434F4D2B5630340D0A00434F4D2B56DA
:100AE10030350D0A00434F4D2B5630360D0A004369
:100AF1004F4D2B5630370D0A00434F4D2B56303892
:100B01000D0A00434F4D2B5630390D0A00434F4D0E
:100B11002B5631300D0A00434F4D2B5631310D0A02
:100B210000434F4D2B5631320D0A00434F4D2B568A
:100B310031330D0A00434F4D2B5631340D0A00431A
:100B41004F4D2B5631350D0A00434F4D2B56313643
:030B51000D0A008A
:0500030035F0FA7BFF5F
:100008007898E670FB7F0A7838E4F608DFFCE4FFAE
:100018007897E6FEEFC39E5014120B54FE74382FE7
:10002800F8A606740129F9E43AFA0F80E3E4789A0D
:0F003800F678987601789AE6062438F8E6F5E728
:010047002296
:100FF7008F61E561C394035012EF75F008A42421B3
:10100700F9740A1200037897760822E561C3940AF7
:101017005013E56175F009A4241EF9740A12000340
:101027007897760922E561C3940F500DE56175F055
:101037000AA42414F9740A800C787EE675F00AA4D1
:0D10470024AAF9740A1200037897760A2291
:10157100303D090544E544C394644015E544B46431
:1015810006789E7609C242E544C3946440037544DB
:021591006522D1
:10035F00203E06203F03020590303E0DC23E7561E0
:10036F0000756200756383800BC23F756100756213
:10037F000075638DAB61AA62A963120B54FF6442CF
:10038F007062900001120B6D64547058900003124C
:10039F000B6DFEB44314900004120B6DB44E0BD2D0
:1003AF003D754202E4F544753701EEB4500B9000F1
:1003BF0004120B6DB44102D242900003120B6DB4C4
:1003CF00500B900004120B6DB45502C24290000303
:1003DF00120B6DB4570E900004120B6DB4500575CF
:1003EF004201C23DEF6453702E900001120B6D64F9
:1003FF00447024900003120B6DFFB4500B90000457
:10040F00120B6DB44102D241EFB4500B90000412A5
:10041F000B6DB45502C241120B546441702E900003
:10042F0001120B6D64587024900003120B6DFFB412
:10043F00500B900004120B6DB44102D242EFB45036
:10044F000B900004120B6DB45502C242120B546490
:10045F0043600302057B900001120B6D644F600334
:10046F0002057B900002120B6D644D600302057B49
:10047F00900004120B6D645660030205099000058D
:10048F00120B6D64307073900006120B6D24D0B494
:10049F000A0050669004B175F003A4C58325F0C51A
:1004AF0083730204CF0204D50204DB0204E10204C9
:1004BF00E70204ED0204F30204F90204FF0205054A
:1004CF00E4787EF68034787E7601802E787E760210
:1004DF008028787E76038022787E7604801C787E52
:1004EF0076058016787E76068010787E7607800AED
:1004FF00787E76088004787E7609AB61AA62A9635C
:10050F00900004120B6D64567062900005120B6D13
:10051F0064317058900006120B6D24D0B407005050
:10052F004B90053E75F003A4C58325F0C583730278
:10053F00055302055902055F02056502056B0205A9
:10054F0071020577787E760A8022787E760B801C82
:10055F00787E760C8016787E760D8010787E760EFB
:10056F00800A787E760F8004787E7610E4FFAB6188
:10057F00AA62A9638F82758300E4120B9A0FBF0AD8
:01058F00ED7E
:010590002248
:100C860012035FE53764016009E537640260030219
:100C96000D35203C12E4789FF6C23DC242787EE6CE
:100CA600F4789DF6E4F543D23CE5431460101460F5
:100CB6001814601A14601A2404701E020D581216B5
:100CC6006553C0FE0543020D700543020D70020D0B
:100CD600671215E50543020D70E5B030E50AE52B10
:100CE60064056004D20FD23B787EE6FF789D66608D
:100CF60009A6077F0F120FF7800D789EE6FF6007A3
:100D0600120FF7E4789EF6E5C030E10F789FE6D340
:100D160094054002800F789F06804FE511B4020AC1
:100D2600E50EB4010543800280405380FD803B30D0
:100D36003C0EE4789FF6F543E5B020E50343B008A2
:100D4600E54314601414601514601614601A240424
:100D560070185380FD054380110543800D054380BF
:0D0D66000943C001054380020543021571D9
:10075900303A0C7555FF7556FF7557FF7558FFE50B
:100769004F65556019E55530E104D2128002C21275
:10077900E55530E204D2158002C21585554FE55082
:1007890065566050E55630E004D2118002C211E589
:100799005630E104D2148002C214E55630E204D284
:1007A900188002C218E55630E304D21B8002C21B2E
:1007B900E55630E404D21E8002C21EE55630E50437
:1007C900D2218002C221E55630E604D2248002C239
:1007D90024855650E55165576050E55730E004D2FD
:1007E900138002C213E55730E104D2178002C21701
:1007F900E55730E204D21A8002C21AE55730E30401
:10080900D21D8002C21DE55730E404D2208002C205
:1008190020E55730E504D2238002C223E55730E6AC
:1008290004D2268002C226855751E5526558605088
:10083900E55830E004D2168002C216E55830E104CA
:10084900D2198002C219E55830E204D21C8002C2D2
:100859001CE55830E304D21F8002C21FE55830E47A
:1008690004D2228002C222E55830E504D225800252
:10087900C225E55830E604D2278002C2278558529E
:10088900E52065536028E52030E104D2288002C2C2
:1008990028E52030E304D22C8002C22CE52030E484
:1008A90006D229D22A8004C229C22A855953E521B0
:1008B9006554601CE52130E002C210E52130E102F7
:1008C900D210E52130E704D22B8002C22B855A547D
:0108D90022FC
:10059100155BE55B70575390FB53A0FE5390EF53EF
:1005A10090DF53B0FE53B0FB53A0FD5390F7539827
:1005B1007F5398FE5398FD53A0EF53B0FD53A0DF36
:1005C10053907F5398BF5398F75398EF53A0FB5321
:1005D100A07F53A0F75398FB5398DF5390FD53909E
:1005E100FE5390BF53A0BF53B0F753B0EF155EE574
:1005F1005E6003020758E51AB40105755B64801259
:10060100E51AB40205755BAF8008E51AB4030375FA
:100611005BFFE55B700302075830120543900480CD
:10062100035390FB30150543A001800353A0FE3016
:10063100110543901080035390EF3014054390202F
:1006410080035390DF30180543B001800353B0FE9F
:10065100301B0543B004800353B0FB301E0543A09B
:1006610002800353A0FD302105439008800353907D
:10067100F7302405439880800353987F3013054356
:10068100980180035398FE30170543980280035365
:1006910098FD301A0543A010800353A0EF301D05CB
:1006A10043B002800353B0FD30200543A0208003F6
:1006B10053A0DF302305439080800353907F302681
:1006C1000543984080035398BF301605439808802E
:1006D100035398F730190543981080035398EF306E
:1006E1001C0543A004800353A0FB301F0543A080D9
:1006F100800353A07F30220543A008800353A0F755
:1007010030250543980480035398FB30270543980F
:100711002080035398DF30100543900280035390EB
:10072100FD30280543900180035390FE3029054395
:10073100904080035390BF302A0543A0408003536B
:10074100A0BF302B0543B008800353B0F7302C0411
:0807510043B0102253B0EF2267
:101103000560E5607002055FC394F4E55F940140F8
:1011130041755F017560F4E58020E01CE5376401EB
:101123007030789E760B0559E559C394054023E446
:10113300F559753702760D22E537B40215789E7698
:101143000C0559E559C394054008E4F55975370171
:03115300760E22F3
:1016B900E4F580F588F590F598F5A0F5B0F5C02228
:0F16C90075D80153AAED53B27F53C27F0216B9F1
:07179900758A0243D9042206
:0B172800E4781EF6781E06E6B40BF90C
:011733002293
:1015CC0053A87F12105412178B12178412176C1217
:0915DC0016F412170143A8802245
:10143200E5C020E22FE4F54812177C1216C91217F4
:1014420099758701121728E4FFE5C030E20DE4FE2A
:101452000EBE10FC0FEFC3940440EEEFC3940440A1
:04146200E01215CCB3
:011466002263
:100EB700020086E493A3F8E493A34003F68001F2CB
:100EC70008DFF48029E493A3F85407240CC8C3333C
:100ED700C4540F4420C8834004F456800146F6DF0B
:100EE700E4800B0102040810204080900048E47E53
:100EF700019360BCA3FF543F30E509541FFEE49300
:100F0700A360010ECF54C025E060A840B8E493A3C6
:100F1700FAE493A3F8E493A3C8C582C8CAC583CAF1
:100F2700F0A3C8C582C8CAC583CADFE9DEE780BEA9
:01004A0000B5
:100B5400BB010689828A83E0225002E722BBFE029F
:090B6400E32289828A83E49322D2
:100B6D00BB010CE58229F582E5833AF583E022503D
:100B7D0006E92582F8E622BBFE06E92582F8E22287
:0D0B8D00E58229F582E5833AF583E49322A1
:100B9A00F8BB010DE58229F582E5833AF583E8F091
:100BAA00225006E92582C8F622BBFE05E92582C83D
:020BBA00F22225
:100BBC00BC000BBE0029EF8DF084FFADF022E4CC1D
:100BCC00F875F008EF2FFFEE33FEEC33FCEE9DECE6
:100BDC00984005FCEE9DFE0FD5F0E9E4CEFD22ED2C
:100BEC00F8F5F0EE8420D21CFEADF075F008EF2F76
:100BFC00FFED33FD4007985006D5F0F222C398FD67
:050C0C000FD5F0EA2203
:100C1100EB9FF5F0EA9E42F0E99D42F0E89C45F039
:010C210022B0
:0C0C2200E6FC08E6FD08E6FE08E6FF22FE
:0D0C2E00E6FB08E6F908E6FA08E6CBF82236
:0C0C3B00ECF608EDF608EEF608EFF622E5
:100C4700D083D082E493F608740193F60874029374
:090C5700F608740393F6740473AB
:100C6000D083D082F8E4937012740193700DA3A323
:100C700093F8740193F5828883E473740293686037
:060C8000EFA3A3A380DF37
:00000001FF
