:03000000020CE906
:0C0CE90078FFE4F6D8FD7581A0020D3004
:0214BF00C14327
:1000860053A87F120E8C1214A312148B12141F1273
:0D009600142C12143943A880120F3080FE84
:03004B00020E356D
:0B0E3500C0E0C0D075D000C000C007B6
:100E4000AFE753E5DB789C760A30401D789AE6C31D
:100E5000940A5007E6062484F8A607EF640A702374
:100E6000789AF6D23EB240801A789AE6C3940A5035
:100E700007E606248EF8A607BF0A08789A7600D2FD
:030E80003FB2403E
:090E8300D007D000D0D0D0E0323D
:030053000211F4A3
:1011F400C0E0C0D075D000C00053E57F7899E660A8
:101204001A789D760A789BE606242AF8E6F5E778AC
:101214009BE6242AF8E670037899F6D000D0D0D063
:02122400E032B6
:03006B0002114738
:10114700C0E0C0F0C083C082C0D075D000C000C06E
:1011570001C002C003C004C005C006C007120F7C4F
:10116700D007D006D005D004D003D002D001D000DC
:0B117700D0D0D082D083D0F0D0E03286
:03008300021182E5
:10118200C0E0C0F0C083C082C0D075D000C000C033
:1011920001C002C003C004C005C006C00712034C50
:1011A200D007D006D005D004D003D002D001D000A1
:0B11B200D0D0D082D083D0F0D0E0324B
:0300A300020FC683
:100FC600C0E0C0D075D000C000C007B23130312DAE
:100FD600787806E6D3943B40247600786D06E6D30F
:100FE600943B40197600787906E6D39417400E763E
:100FF600007872E625E0FFF6BF80027601D007D0C2
:0610060000D0D0D0E03262
:07148300E5E530E5FBAFE7F2
:01148A00223F
:08148B00E4F5ECF5EBF5F522A8
:0D141F0075B29275B47C43AA0243B201225B
:0D142C0075C61875C28A43AA1043C201227A
:10131F0020431275E30275E20643E3ECE4F5E4754E
:08132F00E66743A918D243222E
:10138D0030430CE4F5E3F5E2F5E4F5E653A9E7C2E5
:02139D004322E9
:08149300E5E530E7FB8FE722DD
:0414B700438D20221F
:09146800758E01758DC00214B7E8
:0B145300E4F59EF59FF59F53ABFB22D4
:0D143900759E80759F01759F8143AB042255
:0714A30075D928E4F58A2247
:100E8C007589F675D401E4F592F5E9F5807591F064
:100E9C0075D50FF593F5EAF5887599FFF5D6F594A8
:100EAC00F59075A1FFF5D7F595F59875B1FFF5DAC5
:100EBC00F596F5A075B95FF5DBF59AF5B075C1F14E
:100ECC00F5DCF59BF5C0F5EDF5EEF5EFF5F175F309
:070EDC0018F5F275F40C2279
:08149B00E4F558F556F557225F
:0A145E00E47873F6787EF6C22E22C1
:1011BD00E55745566030786606E6C394324004E440
:1011CD00F6B22DE557155770021556144556701683
:1011DD00E558601224E870057F1702147A755600E1
:0711ED00755706E4F55822D6
:0114C2002207
:10005600202F11786FE6600CC2301214C2E4FF1232
:05006600147AD22F22E4
:1010CF00751A03D212D215D211D214D218D21BD242
:1010DF001ED221D224D213D217D21AD21DD220D28D
:1010EF0023D226D216D219D21CD21FD222D225D267
:0C10FF0027D210D228D229D22AD22B22CC
:10100C001555E555703B121439C212C215C211C2E6
:10101C0014C218C21BC21EC221C224C213C217C2E0
:10102C001AC21DC220C223C226C216C219C21CC2B9
:10103C001FC222C225C227C210C228C229C22AC27C
:02104C002B2255
:10125800121453303202C232303302C233303402F5
:10126800C234303602C236303702C237303805C28F
:0F127800381210CF303905C23912100C0214B7DA
:1009F4007878E6FF7883667003020A84A607786D28
:100A0400E6FF787C666079A607E508B4010D78797D
:100A1400E6B50A07EFB50B03750E01E5086401702E
:100A240047E50E64017041788206E6C3943C4008B1
:100A3400E4F508F50EF512F6E512B4012B78691207
:100A4400089DEF2401FFE43EFEE43DFDE43CFC7818
:100A5400691208B6E47F09FEFDFC78691208A9C38F
:100A640012088C4003E4F5127867E6FF7879666033
:100A74000F7867A607787706E6C394184002E4F671
:100A8400E50864017059E50E64017053E51270487D
:100A9400E51164017039303D05789F76022278743F
:100AA400E6FE08E6FF7C007D0A120837EF4E70046C
:100AB400789F7606787506E618700106C37875E6A1
:100AC40094B818E6940B4017203D1475110222E5E2
:100AD40011B4020B438004225380FB789F760122D9
:100DD800E541B40227787106E618700106C37871F8
:100DE800E694B818E6940B4043E4F541F53CF60860
:100DF800F67879A63E786DA63FF55822E510B4023C
:100E08002B787106E618700106C37871E694B81855
:100E1800E6940B4017E4F510F53CF608F6850C0A45
:0D0E2800850D0B751301F556F557F5582291
:100F7C00D2327881E6FF7002D233EFB40102D23460
:100F8C00EFB40202D236EFB40302D237EFB404024C
:100F9C00D238EFB40502D239EFB40612789D16E6BA
:100FAC0070037899F6789C16E67003789AF6788137
:0A0FBC0006E6C3940A4002E4F622A0
:10128700755403751A037511027529017555C878C8
:101297007F7608E408F6D23BD235D2317878F678F3
:0B12A7006DF67879F6755202C2302215
:100F3000121287E555600512125880F7303202C24E
:100F400032303308C2331214B11200A620340330F9
:100F50003607C234C236120AE4303705C2371212DD
:100F600026303805C2381211BD30390BC239120D86
:0C0F7000D81209F41200031214B780C05C
:100C5000E4FFFEE588540F640F6025438820438835
:100C600020438820438820E588540FFF5388CF43D2
:100C70008810438810438810438810E588540FFE7D
:100C80005388CFBF0E06BE0F037F0122BF0D06BEE5
:100C90000F037F0222BF0B06BE0F037F0322BF0795
:100CA00006BE0F037F0422BF0F06BE0E037F052280
:100CB000BF0F06BE0D037F0622BF0F06BE0B037FCC
:100CC0000722BF0F06BE07037F0822BF0E06BE0E17
:100CD000037F0922BF0D06BE0E037F0A22BF0F0647
:080CE000BE0C037F0B227F0014
:010CE80022E9
:0314BB00120C50C0
:0114BE00220B
:100BB100E4F53AE5466F600BE5476F60038F472226
:100BC1008F4622E54665457051E5457003020C4F9D
:100BD100E53D607A153DE53D7074854543E53B7023
:100BE10003753A01E54414601414601B1460182461
:100BF10003705B754401434320753D322275440205
:100C0100434360753D1422754403434380753D148D
:100C1100E542C394FA5037054222E5456025F54384
:100C2100E53B7003753A01E54424FE600C14600B4A
:100C31002402700A434340800580004343C0E4F529
:0F0C4100448005E4F53BF542753D0585464522A7
:0614B1001214BB020BB196
:1000A600E53A700302034BE5431208C200E941003A
:1000B600FF42017E4301B64401C545026C4602E794
:1000C6004702FC4803304A033E4B00FF8201A883E7
:1000D600026C8602F18703088903308A033E8B008F
:1000E60000034BE50EB4010475120122151AE51A38
:1000F600600302034B751A0322E53CB40111E55473
:10010600B4030CE53EC394185044053E02027FE555
:100116003CB40211E554B4030CE53FC3943B5002D2
:10012600053F02027FE53CB40311E508B4010CE586
:100136000CC394185002050C02027FE53CB404116E
:10014600E508B4010CE50DC3943B5002050D02020F
:100156007FE53CB40515E508B40110E511B40205C8
:10016600751101800375110202027F787FE6C39440
:100176000F400302034B0622E529B4010720421B68
:10018600D2428010E5296402600302034B20410934
:10019600D241C242789F760122C241C242789F76FE
:1001A6000222E542640A600302034B789F76072227
:1001B600E529D39400500302034B789F760422E589
:1001C6003CB4010B7F0512147A753C02020326E546
:1001D6003CB40214E4F53C7879A63E786DA63FF56A
:1001E600417870F608F68077E554B40304E53C6080
:1001F60005E513B40118850A0C850B0D7F0F121443
:100206007A753C03750801751002E4F51322E53C86
:10021600B4030FE508B4010A7F0D12147A753C0485
:100226008012E53CB40413E508B4010E7F131214E2
:100236007A753C05751002020329E53C64056003E6
:1002460002034BE5086401600302034B753C06F5A7
:10025600107870F608F6850C0A850D0B751301F5F6
:1002660056F557F55822E53CB40111E554B4030C94
:10027600E53ED394004002153E020329E53CB40254
:1002860011E554B4030CE53FD394004002153F0238
:100296000329E53CB40312E508B4010DE50CD3943B
:1002A60000500302034B150C22E53CB40410E5088C
:1002B600B4010BE50DD394004002150D8065E53CB5
:1002C600B40514E508B4010FE511B4020575110172
:1002D6008003751102804C787FE6D3940040661641
:1002E60022E5296401605E75290122E542640A70EF
:1002F60054789F760522E529D394004048789F7666
:100306000322E5546403703DE542640A7037787948
:10031600E6F53E786DE6F53F7F0412147A753C01EA
:10032600754102E47870F608F622E554B40316E542
:1003360042B40A1178790622E554B40308E542B4BA
:060346000A03787916227B
:1012DD003F065B4F666D7D077F6F005F7C585E74C8
:1012ED0006545C50781C6E773979713D76061E3840
:0612FD00373F736D3E4017
:10133700EF75F00A84F514EF75F00A8485F015E56A
:0713470014700375140A2263
:1013C300EF75F00A84F516EF75F00A8485F017229D
:091471007880E66002D322C32258
:1012B200EF146007047006AE3E8002AE0C30351AA1
:1012C200EEC3940C5004D2088006D20974F42EFEA8
:0A12D200EE70027E0CAF0612133717
:0112DC0022EF
:10139F00EF146007047006AE3F8002AE0DAF060279
:0213AF0013C366
:10110B00EF14600904700AAE3EAD3F8004AE0CAD27
:10111B000D303527EEC3940A40028E19EEC3940CA2
:10112B005004D2088006D20974F42EFEEE70027EB3
:0B113B000CAF06121337AF051213C3F0
:011146002286
:0714AA00D2057F0102110BC6
:10006E00202D051214715007D2057F0102110B7F4E
:05007E000112139F2296
:10134E00202D051214715007D2057F0102110B7F5B
:05135E00011212B22291
:05004E007F0102110B0F
:1013D300202D051214715007D2057F0112110B2223
:10136300202D051214715007D205E4FF02110BE47E
:05137300FF12139F2290
:10137800202D051214715007D205E4FF02110BE469
:05138800FF1212B22269
:1013E300202D051214715007D205E4FF12110B22B0
:0E140300303B03303107D205E4FF12110B22FB
:0E141100202D051214715005AF521213C32284
:0F13F3007F057814740AF608DFFCE4F520F52175
:0114020022C7
:0D14460075140A75153375162A75172A22BC
:10130300E511B40203D20022E511B4010EE508B4DD
:0C1313000107E5127003D20F22D20F2256
:100D7500E5581208C20D9C010DA1030DA6040DAB8B
:100D8500050DB0060DB5090DBF0D0DBA0F0DC41338
:100D95000DC91A00000DCE1214AA80301213E3807B
:100DA5002B12136380261213788021121411801CD4
:100DB5001213D3801712006E801212134E800D127B
:100DC500004E800812144680031214037880E660F2
:030DD500011622E2
:10104E00E5586403603AE5B030E515E53C640560AB
:10105E000FE529B40106D20FC2038004D203C20FDA
:10106E00E55864136005E508B40115E558B4130E90
:10107E00202D051214715003121303D20122D20136
:01108E00223F
:09147A008F587556277557102292
:10122600203B06E557455660281213F3120D75123A
:10123600104EE4FF8F1B74142FF8E6F51C9012DD98
:1012460093FEF51D744E2FF8A6060FBF04E6120591
:011256001483
:011257002274
:1013B100203B0EE55745567008E508B401031213AA
:0213C100032205
:1006A2002020202020200D0A00434F4D2B50410DC9
:1006B2000A00434F4D2B50550D0A00434F4D2B500E
:1006C200560D0A00434F4D2B504E0D0A00434F4D1D
:1006D2002B50520D0A00434F4D2B41430D0A00434C
:1006E2004F4D2B49510D0A00434F4D2B44430D0AE8
:1006F20000434F4D2B5057440D0A00434F4D2B538F
:10070200444F0D0A00434F4D2B5344460D0A0043FC
:100712004F4D2B4D53440D0A00434F4D2B4D425428
:100722000D0A00434F4D2B5630300D0A00434F4DFA
:100732002B5630310D0A00434F4D2B5630320D0AE5
:1007420000434F4D2B5630330D0A00434F4D2B566D
:1007520030340D0A00434F4D2B5630350D0A0043FD
:100762004F4D2B5630360D0A00434F4D2B56303726
:100772000D0A00434F4D2B5630380D0A00434F4DA2
:100782002B5630390D0A00434F4D2B5631300D0A8E
:1007920000434F4D2B5631310D0A00434F4D2B561E
:1007A20031320D0A00434F4D2B5631330D0A0043AF
:1007B2004F4D2B5631340D0A00434F4D2B563135D8
:0D07C2000D0A00434F4D2B5631360D0A0035
:10108F007899E670FB7F0A782AE4F608DFFCE4FF24
:10109F007898E6FEEFC39E50141207CFFE742A2FE6
:1010AF00F8A606740129F9E43AFA0F80E3E4789B75
:0F10BF00F678997601789BE606242AF8E6F5E79D
:0110CE0022FF
:100EE3008F1EE51EC394095017EF75F009A424A2C1
:100EF300F9740635F0FA7BFF12108F789876082282
:100F0300E51EC3940E500DE51E75F00AA42499F94D
:100F13007406800C787FE675F00AA42425F974071B
:0D0F230035F0FA7BFF12108F7898760A22C5
:1008E800203E06203F030209F3303E0DC23E7563E9
:1008F80000756400756584800BC23F75630075647C
:100908000075658EAB63AA64A9651207CFFF6442C0
:10091800705C9000011207E8645470529000031252
:1009280007E8FEB4430E9000041207E8B44E05D25F
:100938003D753402EEB4500B9000041207E8B44140
:1009480002D2429000031207E8B4500B9000041240
:1009580007E8B45502C2429000031207E8B4570EE4
:100968009000041207E8B45005753401C23DEF64E5
:1009780053702E9000011207E8644470249000031D
:100988001207E8FFB4500B9000041207E8B44102C4
:10099800D241EFB4500B9000041207E8B45502C2DC
:1009A800411207CF6441702E9000011207E8645885
:1009B80070249000031207E8FFB4500B9000041253
:1009C80007E8B44102D242EFB4500B90000412077A
:1009D800E8B45502C242E4FFAB63AA64A9658F82FA
:0B09E800758300E41208150FBF0AED34
:0109F30022E1
:100AE400E52964016009E52964026003020B7920A9
:100AF4003C12E478A0F6C23DC242787FE6F4789EC8
:100B0400F6E4F535D23CE53514600F146015146035
:100B14001514601424047016807E12138D53C0FEC5
:100B2400053522053522807C12131F053522E5B0D8
:100B340030E50AE53C64056004D20FD23B787FE6D9
:100B4400FF789E666009A6077F0E120EE3800D787B
:100B54009FE6FF6007120EE3E4789FF6E5C030E1FC
:100B64001078A0E6D3940540044380022278A006BE
:100B7400225380FD22303C0EE478A0F6F535E5B032
:100B840020E50343B008E5351460131460131460C2
:100B940013146016240470145380FD0535220535A2
:0D0BA4002205352243C0010535220535220A
:10051400303A0C754EFF754FFF7550FF7551FFE56E
:1005240048654E6019E54E30E104D2128002C212D1
:10053400E54E30E204D2158002C215854E48E549E5
:10054400654F6050E54F30E004D2118002C211E5DE
:100554004F30E104D2148002C214E54F30E204D2D9
:10056400188002C218E54F30E304D21B8002C21B7C
:10057400E54F30E404D21E8002C21EE54F30E5048C
:10058400D2218002C221E54F30E604D2248002C287
:1005940024854F49E54A65506050E55030E004D267
:1005A400138002C213E55030E104D2178002C2174F
:1005B400E55030E204D21A8002C21AE55030E30456
:1005C400D21D8002C21DE55030E404D2208002C254
:1005D40020E55030E504D2238002C223E55030E602
:1005E40004D2268002C22685504AE54B65516050EC
:1005F400E55130E004D2168002C216E55130E10420
:10060400D2198002C219E55130E204D21C8002C220
:100614001CE55130E304D21F8002C21FE55130E4CF
:1006240004D2228002C222E55130E504D2258002A0
:10063400C225E55130E604D2278002C22785514BFA
:10064400E520654C6035E52030E0054380048003F7
:100654005380FBE52030E104D2288002C228E52043
:1006640030E304D22C8002C22CE52030E406D229E7
:10067400D22A8004C229C22A85524CE521654D60E4
:100684001CE52130E002C210E52130E102D210E580
:0E0694002130E704D22B8002C22B85534D2269
:10034C00155BE55B70575390FB53A0FE5390EF5336
:10035C0090DF53B0FE53B0FB53A0FD5390F753986E
:10036C007F5398FE5398FD53A0EF53B0FD53A0DF7D
:10037C0053907F5398BF5398F75398EF53A0FB5368
:10038C00A07F53A0F75398FB5398DF5390FD5390E5
:10039C00FE5390BF53A0BF53B0F753B0EF155EE5BB
:1003AC005E6003020513E51AB40105755B648012E7
:1003BC00E51AB40205755BAF8008E51AB403037542
:1003CC005BFFE55B7003020513301205439004805C
:1003DC00035390FB30150543A001800353A0FE305E
:1003EC00110543901080035390EF30140543902077
:1003FC0080035390DF30180543B001800353B0FEE7
:10040C00301B0543B004800353B0FB301E0543A0E2
:10041C0002800353A0FD30210543900880035390C4
:10042C00F7302405439880800353987F301305439D
:10043C00980180035398FE301705439802800353AC
:10044C0098FD301A0543A010800353A0EF301D0512
:10045C0043B002800353B0FD30200543A02080033D
:10046C0053A0DF302305439080800353907F3026C8
:10047C000543984080035398BF3016054398088075
:10048C00035398F730190543981080035398EF30B5
:10049C001C0543A004800353A0FB301F0543A08020
:1004AC00800353A07F30220543A008800353A0F79C
:1004BC0030250543980480035398FB302705439857
:1004CC002080035398DF3010054390028003539033
:1004DC00FD30280543900180035390FE30290543DD
:1004EC00904080035390BF302A0543A040800353B3
:1004FC00A0BF302B0543B008800353B0F7302C0459
:08050C0043B0102253B0EF22AE
:10000300055FE55FC394C8403E755FC8E58020E0A7
:100013001CE52964017030789F760A0559E559C3B8
:1000230094054023E4F559752902760C22E529B499
:100033000215789F760B0559E559C394054008E4EA
:08004300F559752901760D2223
:100CF500020086E493A3F8E493A34003F68001F28F
:100D050008DFF48029E493A3F85407240CC8C333FF
:100D1500C4540F4420C8834004F456800146F6DFCE
:100D2500E4800B01020408102040809014BFE47E8B
:100D3500019360BCA3FF543F30E509541FFEE493C3
:100D4500A360010ECF54C025E060A840B8E493A38A
:100D5500FAE493A3F8E493A3C8C582C8CAC583CAB5
:100D6500F0A3C8C582C8CAC583CADFE9DEE780BE6D
:0114C100002A
:1007CF00BB010689828A83E0225002E722BBFE0228
:0907DF00E32289828A83E493225B
:1007E800BB010CE58229F582E5833AF583E02250C6
:1007F80006E92582F8E622BBFE06E92582F8E22210
:0D080800E58229F582E5833AF583E4932229
:10081500F8BB010DE58229F582E5833AF583E8F019
:10082500225006E92582C8F622BBFE05E92582C8C5
:02083500F222AD
:10083700BC000BBE0029EF8DF084FFADF022E4CCA5
:10084700F875F008EF2FFFEE33FEEC33FCEE9DEC6E
:10085700984005FCEE9DFE0FD5F0E9E4CEFD22EDB4
:10086700F8F5F0EE8420D21CFEADF075F008EF2FFE
:10087700FFED33FD4007985006D5F0F222C398FDEF
:050887000FD5F0EA228C
:10088C00EB9FF5F0EA9E42F0E99D42F0E89C45F0C2
:01089C002239
:0C089D00E6FC08E6FD08E6FE08E6FF2287
:0D08A900E6FB08E6F908E6FA08E6CBF822BF
:0C08B600ECF608EDF608EEF608EFF6226E
:1008C200D083D082F8E4937012740193700DA3A3C5
:1008D20093F8740193F5828883E4737402936860D9
:0608E200EFA3A3A380DFD9
:00000001FF
