:03000000020E618C
:0C0E610078FFE4F6D8FD75819D020EA814
:02004800C143B2
:1000860053A87F12100A12168812168112166912C8
:0D00960015FD12160A43A88012110C80FE01
:03004B000210623E
:0B106200C0E0C0D075D000C000C00787
:10106D00AFE753E5DB7899760A30401D7897E6C3F4
:10107D00940A5007E6062481F8A607EF640A702348
:10108D007897F6D23EB240801A7897E6C3940A500C
:10109D0007E606248BF8A607BF0A0878977600D2D4
:0310AD003FB2400F
:0910B000D007D000D0D0D0E0320E
:030053000213A3F2
:1013A300C0E0C0D075D000C00053E57F7896E660FA
:1013B3001A789A760A7898E6062438F8E6F5E778F4
:1013C30098E62438F8E670037896F6D000D0D0D0AB
:0213D300E03206
:03006B000212F688
:1012F600C0E0C0F0C083C082C0D075D000C000C0BE
:1013060001C002C003C004C005C006C0071211ED2B
:10131600D007D006D005D004D003D002D001D0002B
:0B132600D0D0D082D083D0F0D0E032D5
:0300830002133134
:10133100C0E0C0F0C083C082C0D075D000C000C082
:1013410001C002C003C004C005C006C00712057B6E
:10135100D007D006D005D004D003D002D001D000F0
:0B136100D0D0D082D083D0F0D0E0329A
:0300A3000211A3A4
:1011A300C0E0C0D075D000C000C007B23130312DCF
:1011B300787506E6D3943B40247600786A06E6D336
:1011C300943B40197600787606E6D39417400E7662
:1011D30000786FE625E0FFF6BF80027601A2319228
:0A11E30004D007D000D0D0D0E032D5
:07166100E5E530E5FBAFE712
:01166800225F
:10155800EF6007E5974401FF8005E59754FEFF8F8C
:021568009722C8
:07168100759704758FD1225B
:08166900E4F5ECF5EBF5F522C8
:0D15FD0075B29275B47C43AA0243B201227C
:0D160A0075C61875C28A43AA1043C201229A
:1014EA0020431275E30275E20643E3ECE4F5E47582
:0814FA00E66743A918D2432262
:10156A0030430CE4F5E3F5E2F5E4F5E653A9E7C206
:02157A0043220A
:08167100E5E530E7FB8FE722FD
:04169C00438D202238
:09164600758E01758DC002169C21
:0B163100E4F59EF59FF59F53ABFB22F4
:0D161700759E88759F01759F8043AB04226E
:0716880075D929E4F58A225F
:10100A007589F675D401E4F592F5E9F5807591F0E4
:10101A0075D50FF593F5EAF5887599FFF5D6F59428
:10102A00F59075A1FFF5D7F595F59875B1FFF5DA45
:10103A00F596F5A075B95FF5DBF59AF5B075C1F1CE
:10104A00F5DCF59BF5C075ED02F5EEF5EFF5F175FA
:08105A00F318F5F275F40C2205
:08167900E4F555F553F5542288
:0A163C00E47870F6787BF6C22E22E7
:10136C00E55445536030786306E6C394324004E498
:10137C00F6B22DE5541554700215531445537016DE
:10138C00E555601224E870057F1702165875530056
:07139C00755406E4F555222B
:0116A4002223
:10005600202F11786CE6600CC2301216A4E4FF1251
:050066001658D22F2204
:1012BA00751A03D212D215D211D214D218D21BD255
:1012CA001ED221D224D213D217D21AD21DD220D2A0
:1012DA0023D226D216D219D21CD21FD222D225D27A
:0C12EA0027D210D228D229D22AD22B22DF
:101237001552E552703B121617C212C215C211C2DF
:1012470014C218C21BC21EC221C224C213C217C2B3
:101257001AC21DC220C223C226C216C219C21CC28C
:101267001FC222C225C227C210C228C229C22AC24F
:021277002B2228
:1013D500121631303202C232303302C23330340297
:1013E500C234303602C236303702C237303805C211
:0F13F500381212BA303905C23912123702169C5B
:100B36007875E6FF7880667003020BDDA607786A93
:100B4600E6FF7879667003020BDDA607E508B401B7
:100B56000D7876E6B50A07EFB50B03750E01E508C5
:100B66006401705BE50E64017055787F06E6C394F8
:100B76003C4013E4F508F50EF512F6E511B401064E
:100B8600C242789C7604E512B401347866120AD221
:100B9600EF2401FFE43EFEE43DFDE43CFC786612F2
:100BA6000AEBE47F09FEFDFC7866120ADEC3120A30
:100BB600C1400C7866120AF700000000E4F51278CE
:100BC60064E6FF787666600F7864A607787406E6B2
:100BD600C394184002E4F6E50864017064E50E6407
:100BE60001705EE512704CE5116401703C303D0801
:100BF60020424E789C7603227871E6FE08E6FF7C5A
:100C0600007D0A120A6CEF4E7004789C76027872A8
:100C160006E618700106C37872E694B818E6940BD7
:100C2600401F203D1C75110222E511B402137F01FD
:100C3600021558E4FF121558304206C242789C76D7
:020C4600042286
:100F5000E530B40227786E06E618700106C3786E95
:100F6000E694B818E6940B4043E4F530F52BF60808
:100F7000F67876A62D786AA62EF55522E510B402ED
:100F80002B786E06E618700106C3786EE694B818E2
:100F9000E6940B4017E4F510F52BF608F6850C0ADD
:0D0FA000850D0B751301F553F554F5552221
:1011ED00D232787EE6FF7002D233EFB40102D234F0
:1011FD00EFB40202D236EFB40302D237EFB40402D9
:10120D00D238EFB40502D239EFB40612789A16E649
:10121D0070037896F6789916E670037897F6787ECF
:0A122D0006E6C3940A4002E4F6222C
:10143000755103751A037511017537017552C87816
:101440007C7608E408F6D23BD235D2317875F6784E
:0B1450006AF67876F6754F02C2302273
:10110C00121430E55260051213D580F7303202C24A
:10111C0032303308C2331216961200A62034033034
:10112C003607C234C236120C48303705C237121497
:10113C0004303805C23812136C30390BC239120F17
:0C114C0050120B361210B912169C80C015
:100DC800E4FFFEE588540F640F60254388204388BC
:100DD80020438820438820E588540FFF5388CF4359
:100DE8008810438810438810438810E588540FFE04
:100DF8005388CFBF0E06BE0F037F0122BF0D06BE6C
:100E08000F037F0222BF0B06BE0F037F0322BF071B
:100E180006BE0F037F0422BF0F06BE0E037F052206
:100E2800BF0F06BE0D037F0622BF0F06BE0B037F52
:100E38000722BF0F06BE07037F0822BF0E06BE0E9D
:100E4800037F0922BF0D06BE0E037F0A22BF0F06CD
:080E5800BE0C037F0B227F009A
:010E6000226F
:0316A000120DC860
:0116A3002224
:100D2900E4F529E5356F600BE5366F60038F3622F0
:100D39008F3522E53565347051E5347003020DC7EE
:100D4900E52C607A152CE52C7074853432E52A700F
:100D590003752901E53314601414601B1460182409
:100D690003705B753301433220752C3222753302CF
:100D7900433260752C1422753303433280752C1469
:100D8900E531C394FA5037053122E5346025F5324F
:100D9900E52A7003752901E53324FE600C14600B04
:100DA9002402700A433240800580004332C0E4F5D2
:0F0DB900338005E4F52AF531752C058535342294
:061696001216A0020D294E
:1000A600E529700302034BE532120B1000E941000B
:1000B600FF42017E4301B64401C545026C4602E794
:1000C6004702FC4803304A033E4B00FF8201A883E7
:1000D600026C8602F18703088903308A033E8B008F
:1000E60000034BE50EB4010475120122151AE51A38
:1000F600600302034B751A0322E52BB40111E55187
:10010600B4030CE52DC394185044052D02027FE577
:100116002BB40211E551B4030CE52EC3943B5002F7
:10012600052E02027FE52BB40311E508B4010CE5A8
:100136000CC394185002050C02027FE52BB404117F
:10014600E508B4010CE50DC3943B5002050D02020F
:100156007FE52BB40515E508B40110E511B40205D9
:10016600751101800375110202027F787CE6C39443
:100176000F400302034B0622E537B4010720421B5A
:10018600D2428010E5376402600302034B20410926
:10019600D241C242789C760422C241C242789C7601
:1001A6000322E531640A600302034B789C7607223A
:1001B600E537D39400500302034B789C760622E57C
:1001C6002BB4010B7F05121658752B02020326E588
:1001D6002BB40214E4F52B7876A62D786AA62EF5B4
:1001E60030786DF608F68077E551B40304E52B60A8
:1001F60005E513B40118850A0C850B0D7F0F121641
:1002060058752B03750801751002E4F51322E52BCA
:10021600B4030FE508B4010A7F0D121658752B04B6
:100226008012E52BB40413E508B4010E7F131216F1
:1002360058752B05751002020329E52B640560032A
:1002460002034BE5086401600302034B752B06F5B8
:1002560010786DF608F6850C0A850D0B751301F5F9
:1002660053F554F55522E52BB40111E551B4030CB1
:10027600E52DD394004002152D020329E52BB40287
:1002860011E551B4030CE52ED394004002152E025D
:100296000329E52BB40312E508B4010DE50CD3944C
:1002A60000500302034B150C22E52BB40410E5089D
:1002B600B4010BE50DD394004002150D8065E52BC6
:1002C600B40514E508B4010FE511B4020575110172
:1002D6008003751102804C787CE6D3940040661644
:1002E60022E5376401605E75370122E531640A70E4
:1002F60054789C760122E537D394004048789C7662
:100306000522E5516403703DE531640A703778765D
:10031600E6F52D786AE6F52E7F04121658752B0140
:10032600753002E4786DF608F622E551B40316E559
:1003360031B40A1178760622E551B40308E531B4E2
:060346000A03787616227E
:101486003F065B4F666D7D077F6F005F7C585E741D
:1014960006545C50781C6E773979713D76061E3895
:0614A600373F736D3E406C
:10150200EF75F00A84F514EF75F00A8485F015E59D
:0715120014700375140A2296
:1015B100EF75F00A84F516EF75F00A8485F01722AD
:09164F00787DE66002D322C3227B
:10145B00EF146007047006AE2D8002AE0C30351A07
:10146B00EEC3940C5004D2088006D20974F42EFEFD
:0A147B00EE70027E0CAF061215029F
:011485002244
:10157C00EF146007047006AE2E8002AE0DAF0602AB
:02158C0015B197
:10115800EF14601824FE600E240370147876E6FEFF
:10116800786AE6FD800AAE2DAD2E8004AE0CAD0D7A
:10117800303527EEC3940A40028E19EEC3940C5002
:1011880004D2088006D20974F42EFEEE70027E0C9A
:0A119800AF06121502AF051215B1E3
:0111A200222A
:07168F00D2057F0102115892
:10006E00202D0512164F5007D2057F010211587F21
:05007E000112157C22B7
:10151900202D0512164F5007D2057F010211587F61
:051529000112145B2219
:05004E007F01021158C2
:1015C100202D0512164F5007D2057F011211582206
:10152E00202D0512164F5007D205E4FF021158E484
:05153E00FF12157C22E4
:10154300202D0512164F5007D205E4FF021158E46F
:05155300FF12145B22F1
:1015D100202D0512164F5007D2057F0312115822F4
:0E15E100203B03303107D205E4FF12115822DF
:0E15EF00202D0512164F5005AF4F1215B122D8
:1015A0007F057814740AF608DFFC532010E4F52157
:0115B0002218
:0D16240075140A75153375162A75172A22DC
:1014CE00E511B40203D20022E511B4010EE508B411
:0C14DE000107E5127003D20F22D20F228A
:100EED00E555120B100F14010F19030F1E040F23DC
:100EFD00050F28060F2D090F370D0F320F0F3C135D
:100F0D000F411A00000F4612168F80301215D18036
:100F1D002B12152E802612154380211215EF801CE1
:100F2D001215C1801712006E8012121519800D1244
:100F3D00004E800812162480031215E1787DE660BC
:030F4D0001162268
:10127900E5556403603AE5B030E515E52B64056092
:101289000FE537B40106D20FC2038004D203C20F9F
:10129900E55564136005E508B40115E555B4130E69
:1012A900202D0512164F50031214CED20122D2015D
:0112B9002212
:091658008F5575532775541022BB
:10140400203B06E554455360221215A0120EED123E
:101414001279E4FF74142FF8E690148693FE744B4B
:0B1424002FF8A6060FBF04EC120743D0
:01142F00229A
:10158E00203B0EE55445537008E508B401031214D0
:02159E00CE225B
:1008D10020202020200D0A0042542B50520D0A00E6
:1008E10042542B41430D0A00434F4D2B50410D0AF9
:1008F10000434F4D2B50550D0A00434F4D2B505681
:100901000D0A00434F4D2B504E0D0A00434F4D2B06
:1009110049510D0A00434F4D2B44430D0A00434FEB
:100921004D2B47560D0A00434F4D2B5057440D0A8E
:1009310000434F4D2B53444F0D0A00434F4D2B5352
:1009410044460D0A00434F4D2B4D53440D0A0043BD
:100951004F4D2B4D42540D0A00434F4D2B56303015
:100961000D0A00434F4D2B5630310D0A00434F4DB8
:100971002B5630320D0A00434F4D2B5630330D0AA2
:1009810000434F4D2B5630340D0A00434F4D2B562B
:1009910030350D0A00434F4D2B5630360D0A0043BA
:1009A1004F4D2B5630370D0A00434F4D2B563038E3
:1009B1000D0A00434F4D2B5630390D0A00434F4D60
:1009C1002B5631300D0A00434F4D2B5631310D0A54
:1009D10000434F4D2B5631320D0A00434F4D2B56DC
:1009E10031330D0A00434F4D2B5631340D0A00436C
:1009F1004F4D2B5631350D0A00434F4D2B56313695
:030A01000D0A00DB
:0500030035F0FA7BFF5F
:100008007896E670FB7F0A7838E4F608DFFCE4FFB0
:100018007895E6FEEFC39E5014120A04FE74382F3A
:10002800F8A606740129F9E43AFA0F80E3E478980F
:0F003800F6789676017898E6062438F8E6F5E72C
:010047002296
:100FAD008F60E560C394035012EF75F008A424D14F
:100FBD00F974081200037895760822E560C3940A47
:100FCD005013E56075F009A424CEF97408120003DE
:100FDD007895760922E560C3940F500DE56075F0A4
:100FED000AA424C4F97408800C787CE675F00AA470
:0D0FFD0024BEF974091200037895760A22CB
:1014AC00303D090544E544C394644015E544B464F7
:1014BC0006789C7609C242E544C3946440037544A3
:0214CC00652297
:10034C00203E06203F0302057A303E0DC23E75600A
:10035C0000756100756281800BC23F75600075612C
:10036C000075628BAB60AA61A962120A04FF644239
:10037C00705F900001120A1D6454705590000312B6
:10038C000A1DFEB44311900004120A1DB44E08D28B
:10039C003D754202E4F544EEB4500B900004120A91
:1003AC001DB44102D242900003120A1DB4500B90AE
:1003BC000004120A1DB45502C242900003120A1D19
:1003CC00B4570E900004120A1DB45005754201C2B8
:1003DC003DEF6453702E900001120A1D644470248A
:1003EC00900003120A1DFFB4500B900004120A1D5A
:1003FC00B44102D241EFB4500B900004120A1DB468
:10040C005502C241120A046441702E900001120A76
:10041C001D64587024900003120A1DFFB4500B90F9
:10042C000004120A1DB44102D242EFB4500B9000EA
:10043C0004120A1DB45502C242120A04644360033A
:10044C00020565900001120A1D644F6003020565E8
:10045C00900002120A1D644D6003020565900004B1
:10046C00120A1D645660030204F3900005120A1D63
:10047C0064307073900006120A1D24D0B40A005028
:10048C006690049B75F003A4C58325F0C5837302A5
:10049C0004B90204BF0204C50204CB0204D1020455
:1004AC00D70204DD0204E30204E90204EFE4787CE1
:1004BC00F68034787C7601802E787C7602802878E1
:1004CC007C76038022787C7604801C787C76058090
:1004DC0016787C76068010787C7607800A787C7695
:1004EC00088004787C7609AB60AA61A9629000044C
:1004FC00120A1D64567062900005120A1D64317058
:10050C0058900006120A1D24D0B40700504B9005D9
:10051C002875F003A4C58325F0C5837302053D023D
:10052C00054302054902054F02055502055B02050C
:10053C0061787C760A8022787C760B801C787C76BD
:10054C000C8016787C760D8010787C760E800A787C
:10055C007C760F8004787C7610E4FFAB60AA61A9EE
:0E056C00628F82758300E4120A4A0FBF0AED07
:01057A00225E
:100C480012034CE53764016009E53764026003026A
:100C58000CEB203C12E4789DF6C23DC242787CE65B
:100C6800F4789BF6E4F543D23CE543146010146035
:100C78001814601A14601A2404701E020D0E12153E
:100C88006A53C0FE0543020D260543020D26020DD8
:100C98001D1214EA0543020D26E5B030E50AE52BDE
:100CA80064056004D20FD23B787CE6FF789B6660CF
:100CB80009A6077F0F120FAD800D789CE6FF60072D
:100CC800120FADE4789CF6E5C030E112789DE6D3CA
:100CD800940540054380028045789D0680405380F6
:100CE800FD803B303C0EE4789DF6F543E5B020E509
:100CF8000343B008E5431460141460151460161417
:100D0800601A240470185380FD0543801105438040
:100D18000D0543800943C0010543800205430214C1
:010D2800AC1E
:10074300303A0C754BFF754CFF754DFF754EFFE549
:1007530045654B6019E54B30E104D2128002C212A9
:10076300E54B30E204D2158002C215854B45E546C0
:10077300654C6050E54C30E004D2118002C211E5B3
:100783004C30E104D2148002C214E54C30E204D2AE
:10079300188002C218E54C30E304D21B8002C21B4E
:1007A300E54C30E404D21E8002C21EE54C30E50461
:1007B300D2218002C221E54C30E604D2248002C259
:1007C30024854C46E547654D6050E54D30E004D245
:1007D300138002C213E54D30E104D2178002C21721
:1007E300E54D30E204D21A8002C21AE54D30E3042B
:1007F300D21D8002C21DE54D30E404D2208002C226
:1008030020E54D30E504D2238002C223E54D30E6D6
:1008130004D2268002C226854D47E548654E6050C6
:10082300E54E30E004D2168002C216E54E30E104F4
:10083300D2198002C219E54E30E204D21C8002C2F2
:100843001CE54E30E304D21F8002C21FE54E30E4A4
:1008530004D2228002C222E54E30E504D225800272
:10086300C225E54E30E604D2278002C227854E48D2
:10087300E52065496035E52030E0054380048003C9
:100883005380FBE52030E104D2288002C228E52012
:1008930030E304D22C8002C22CE52030E406D229B6
:1008A300D22A8004C229C22A854F49E521654A60BC
:1008B3001CE52130E002C210E52130E102D210E54F
:0E08C3002130E704D22B8002C22B85504A223E
:10057B00155AE55A70575390FB53A0FE5390EF5307
:10058B0090DF53B0FE53B0FB53A0FD5390F753983D
:10059B007F5398FE5398FD53A0EF53B0FD53A0DF4C
:1005AB0053907F5398BF5398F75398EF53A0FB5337
:1005BB00A07F53A0F75398FB5398DF5390FD5390B4
:1005CB00FE5390BF53A0BF53B0F753B0EF155DE58B
:1005DB005D6003020742E51AB40105755A64801287
:1005EB00E51AB40205755AAF8008E51AB403037512
:1005FB005AFFE55A700302074230120543900480FC
:10060B00035390FB30150543A001800353A0FE302C
:10061B00110543901080035390EF30140543902045
:10062B0080035390DF30180543B001800353B0FEB5
:10063B00301B0543B004800353B0FB301E0543A0B1
:10064B0002800353A0FD3021054390088003539093
:10065B00F7302405439880800353987F301305436C
:10066B00980180035398FE3017054398028003537B
:10067B0098FD301A0543A010800353A0EF301D05E1
:10068B0043B002800353B0FD30200543A02080030C
:10069B0053A0DF302305439080800353907F302697
:1006AB000543984080035398BF3016054398088044
:1006BB00035398F730190543981080035398EF3084
:1006CB001C0543A004800353A0FB301F0543A080EF
:1006DB00800353A07F30220543A008800353A0F76B
:1006EB0030250543980480035398FB302705439826
:1006FB002080035398DF3010054390028003539002
:10070B00FD30280543900180035390FE30290543AB
:10071B00904080035390BF302A0543A04080035381
:10072B00A0BF302B0543B008800353B0F7302C0427
:08073B0043B0102253B0EF227D
:1010B900055FE55F7002055EC394F4E55E94014047
:1010C90041755E01755FF4E58020E01CE537640138
:1010D9007030789C760B0558E558C394054023E495
:1010E900F558753702760D22E537B40215789C76E6
:1010F9000C0558E558C394054008E4F558753701BF
:03110900760E223D
:100E6D00020086E493A3F8E493A34003F68001F215
:100E7D0008DFF48029E493A3F85407240CC8C33386
:100E8D00C4540F4420C8834004F456800146F6DF55
:100E9D00E4800B0102040810204080900048E47E9D
:100EAD00019360BCA3FF543F30E509541FFEE4934A
:100EBD00A360010ECF54C025E060A840B8E493A311
:100ECD00FAE493A3F8E493A3C8C582C8CAC583CA3C
:100EDD00F0A3C8C582C8CAC583CADFE9DEE780BEF4
:01004A0000B5
:100A0400BB010689828A83E0225002E722BBFE02F0
:090A1400E32289828A83E4932223
:100A1D00BB010CE58229F582E5833AF583E022508E
:100A2D0006E92582F8E622BBFE06E92582F8E222D8
:0D0A3D00E58229F582E5833AF583E49322F2
:100A4A00F8BB010DE58229F582E5833AF583E8F0E2
:100A5A00225006E92582C8F622BBFE05E92582C88E
:020A6A00F22276
:100A6C00BC000BBE0029EF8DF084FFADF022E4CC6E
:100A7C00F875F008EF2FFFEE33FEEC33FCEE9DEC37
:100A8C00984005FCEE9DFE0FD5F0E9E4CEFD22ED7D
:100A9C00F8F5F0EE8420D21CFEADF075F008EF2FC7
:100AAC00FFED33FD4007985006D5F0F222C398FDB8
:050ABC000FD5F0EA2255
:100AC100EB9FF5F0EA9E42F0E99D42F0E89C45F08B
:010AD1002202
:0C0AD200E6FC08E6FD08E6FE08E6FF2250
:0D0ADE00E6FB08E6F908E6FA08E6CBF82288
:0C0AEB00ECF608EDF608EEF608EFF62237
:100AF700D083D082E493F608740193F608740293C6
:090B0700F608740393F6740473FC
:100B1000D083D082F8E4937012740193700DA3A374
:100B200093F8740193F5828883E473740293686088
:060B3000EFA3A3A380DF88
:00000001FF
