:0300000002107576
:0C10750078FFE4F6D8FD7581B20210BCD3
:02004800C142B3
:1000860053A87F1212841219B81219B112199912B3
:0D009600192112192E43A88012138680FE36
:03004B000212DCC2
:0B12DC00C0E0C0D075D000C000C0070B
:1012E700AFE753E5DB78AE760A30401D78ACE6C34E
:1012F700940A5007E6062496F8A607EF640A7023B7
:1013070078ACF6D23EB240801A78ACE6C3940A5065
:1013170007E60624A0F8A607BF0A0878AC7600D22D
:031327003FB24092
:09132A00D007D000D0D0D0E03291
:030053000216583A
:10165800C0E0C0D075D000C00053E57F78ABE6602D
:101668001A78AF760A78ADE6062409F8E6F5E77841
:10167800ADE62409F8E6700378ABF6D000D0D0D0F8
:02168800E0324E
:03006B0002157506
:10157500C0E0C0F0C083C082C0D075D000C000C03C
:1015850001C002C003C004C005C006C0071214672D
:10159500D007D006D005D004D003D002D001D000AA
:0B15A500D0D0D082D083D0F0D0E03254
:030083000215B0B3
:1015B000C0E0C0F0C083C082C0D075D000C000C001
:1015C00001C002C003C004C005C006C00712083C29
:1015D000D007D006D005D004D003D002D001D0006F
:0B15E000D0D0D082D083D0F0D0E03219
:0300A30002141D27
:10141D00C0E0C0D075D000C000C007B23130312D52
:10142D00788906E6D3943B40027600787D06E6D3B4
:10143D00943B40197600788A06E6D39417400E76D1
:10144D00007882E625E0FFF6BF80027601A2319298
:0A145D0004D007D000D0D0D0E03258
:07199100E5E530E5FBAFE7DF
:01199800222C
:10188000EF6007E5974401FF8005E59754FEFF8F61
:0218900097229D
:0719B100E4F597758FF922A0
:08199900E4F5ECF5EBF5F52295
:0D19210075B29275B47C43AA0243B2012254
:0D192E0075C61875C28A43AA1043C2012273
:1017FB0020421275E30275E20643E3ECE4F5E4756F
:08180B00E66743A918D242224E
:1018920030420CE4F5E3F5E2F5E4F5E653A9E7C2DC
:0218A2004222E0
:0819A100E5E530E7FB8FE722CA
:04004E00438D20229C
:09197600758E01758DC002004E52
:0B196100E4F59EF59FF59F53ABFB22C1
:0D193B00759E88759F01759F8043AB042247
:0719B80075D929E4F58A222C
:101284007589F675D401E4F592F5E9F5807591F068
:1012940075D50FF593F5EAF5887599FFF5D6F594AC
:1012A400F59075A1FFF5D7F595F59875B1FFF5DAC9
:1012B400F596F5A075B95FF5DBF59AF5B075C1F152
:1012C400F5DCF59BF5C075ED02F5EEF5EFF5F1757E
:0812D400F318F5F275F40C2289
:0819A900E4F560F55DF55E2236
:0A196C00E47883F67890F6C22E228C
:1015EB00E55E455D6030787606E6C394324004E4F0
:1015FB00F6B22DE55E155E7002155D14455D701635
:10160B00E560601224E870057F17021988755D008C
:07161B00755E06E4F5602294
:01005200228B
:10005600202F11787FE6600CC230120052E4FF12A6
:050066001988D22F22D1
:10153700754903D212D215D211D214D218D21BD2A6
:101547001ED221D224D213D217D21AD21DD220D220
:1015570023D226D216D219D21CD21FD222D225D2FA
:0E15670027D210D228D229D22AD22BD22C225F
:1014F500155CE55C703B12193BC212C215C211C2E4
:1015050014C218C21BC21EC221C224C213C217C2F2
:101515001AC21DC220C223C226C216C219C21CC2CB
:101525001FC222C225C227C210C228C229C22AC28E
:021535002B2267
:1016BC00121961303202C232303302C2333034027A
:1016CC00C234303602C236303702C237303805C227
:0F16DC0038121537303905C2391214F502004E95
:100A04007889E6FF7895667003020AC7A607E55F52
:100A1400B4020F753B01753E02E4F55F78B17604CC
:100A2400800BE55FB40106753B01E4F55F787DE674
:100A3400FF788D667003020AC7A607E535B4011A6C
:100A4400788AE6B53714EFB53810E53B700CE53E0F
:100A5400B4010778B17608755F01E5356401704B20
:100A6400E53B64017045789406E6C3943C40031268
:100A74001813E53FB4013478791207D8EF2401FF45
:100A8400E43EFEE43DFDE43CFC78791207F1E47FAA
:100A940009FEFDFC78791207E4C31207C7400C78FD
:100AA400791207FD00000000E4F53F7877E6FF784F
:100AB4008A66600F7877A607788806E6C39418409C
:100AC40002E4F6E53564016003020B9BE53B640137
:100AD4006003020B9BE53F6003020B88E53E640163
:100AE4007074303D39E516700A7516017884F6087D
:100AF400F68026E51664016003020B9B788506E602
:100B0400187001067884E6FE08E6FF7C007D641216
:100B14000772ED4C6003020B9B78B1760322788454
:100B2400E6FE08E6FF7C007D64120772ED4C70045B
:100B340078B17602788506E618700106E4F516C3E6
:100B44007885E694B818E6940B404CE4F608F62051
:100B54003D45753E0222E53E6402703B43800278C7
:100B64008706E6C3942850047F0180107887E6FF47
:100B7400C39428400AEF94505005E4FF021880E41F
:100B84007887F622E4FF1218805380FDE51660078B
:080B9400E4F51678B1760422A5
:1011CA00E551B40227788106E618700106C37881D2
:1011DA00E694B818E6940B4043E4F551F54CF6084A
:1011EA00F6788AA64E787DA64FF56022E53DB402D0
:1011FA002B788106E618700106C37881E694B81840
:10120A00E6940B4017E4F53DF54CF608F6853937B8
:0D121A00853A38754001F55DF55EF56022FE
:10146700D2327893E6FF7002D233EFB40102D2345E
:10147700EFB40202D236EFB40302D237EFB404025C
:10148700D238EFB40502D239EFB4061278AF16E6B8
:10149700700378ABF678AE16E6700378ACF67893FF
:0A14A70006E6C3940A4002E4F622B0
:1016EB00755B03754903753E01E4F50853C0FE7540
:1016FB005CC87891760808F6D23BD235D23178891E
:0F170B00F6787DF6788AF6755902F558C23022C5
:101386001216EBE55C60051216BC80F7303202C21D
:1013960032303308C2331219D41200A62034033077
:1013A6003607C234C236120E59303705C237121705
:1013B6001A303805C2381215EB30390BC239121102
:0C13C600CA120A0412133312004E80C039
:100FDC00E4FFFEE588540F640F60254388204388A6
:100FEC0020438820438820E588540FFF5388CF4343
:100FFC008810438810438810438810E588540FFEEE
:10100C005388CFBF0E06BE0F037F0122BF0D06BE55
:10101C000F037F0222BF0B06BE0F037F0322BF0705
:10102C0006BE0F037F0422BF0F06BE0E037F0522F0
:10103C00BF0F06BE0D037F0622BF0F06BE0B037F3C
:10104C000722BF0F06BE07037F0822BF0E06BE0E87
:10105C00037F0922BF0D06BE0E037F0A22BF0F06B7
:08106C00BE0C037F0B227F0084
:011074002259
:0319DA00120FDC0D
:0119DD0022E7
:100F3D00E4F54AE5566F600BE5576F60038F572256
:100F4D008F5622E55665557051E5557003020FDB3E
:100F5D00E54D607A154DE54D7074855553E54B7033
:100F6D0003754A01E55414601414601B14601824B1
:100F7D0003705B755401435320754D322275540235
:100F8D00435360754D1422755403435380754D14AE
:100F9D00E552C394FA5037055222E5556025F553B5
:100FAD00E54B7003754A01E55424FE600C14600B8B
:100FBD002402700A435340800580004353C0E4F57A
:0F0FCD00548005E4F54BF552754D0585565522B8
:0619D4001219DA020F3DBA
:1000A600E54A70030203AAE535B40110E53BB40145
:1000B6000BE553540F64016003121813E55312083D
:1000C6001600FE4101144201C54301D84401E7452B
:1000D600028D46033147034848037C4A03944B018B
:1000E600148201CA83028D86033D87035489037CEB
:1000F6008A03948B000003AAE53BB40104753F0113
:10010600221549E54960030203AA75490322E54C15
:10011600B4011EE55BB40319E54ED39418500505EA
:100126004E0202A9E54ED394184048E4F54E020269
:10013600A9E54CB4021EE55BB40319E54FD3943B25
:100146005005054F0202C7E54FD3943B4003E4F543
:100156004F0202C7E54CB4031DE535B40118E53975
:10016600D3941850040539800AE539D3941840030E
:10017600E4F5390202A9E54CB4041DE535B40118CD
:10018600E53AD3943B5004053A800AE53AD3943BCA
:100196004003E4F53A0202A9E54CB40515E535B489
:1001A6000110E53EB40205753E018003753E02026C
:1001B60002A97891E6C3940F40030203AA062278A7
:1001C600B1760522E552640A60030203AA78B17685
:1001D6000822E508D3940050030203AA78B17607F3
:1001E60022E54CB4010B7F05121988754C020203F7
:1001F60072E54CB40214E4F54C788AA64E787DA6D6
:100206004FF5517880F608F68076E55BB40304E591
:100216004C6005E540B4011885373985383A7F0FBB
:10022600121988754C03753501753D02E4F54022B7
:10023600E54CB4030FE535B4010A7F0D1219887534
:100246004C048012E54CB40413E535B4010E7F135B
:10025600121988754C05753D020202EAE54C6405E3
:1002660060030203AAE535640160030203AAF54CA4
:10027600F53D7880F608F6853937853A38754001B8
:10028600F55DF55EF56022E54CB40119E55BB40356
:1002960014E54ED394004004154E8007E54E7003D6
:1002A600754E18803FE54CB4021EE55BB40319E5B4
:1002B6004FD394004004154F8007E54F7003754FE8
:1002C6003BE4787DF6020376E54CB4031BE535B4D2
:1002D6000116E539D39400400415398007E53970D5
:1002E60003753918E4020376E54CB4041AE535B40F
:1002F6000115E53AD394004004153A8007E53A70B3
:1003060003753A3BE48069E54CB40515E535B4015F
:1003160010E53EB40205753E018003753E02E48099
:100326004F7891E6D39400407B1622E50870047559
:10033600080122E4F50822E552640A706778B1766E
:100346000122E508D39400405B78B1760622E55B8E
:1003560064037050E552640A704A788AE6F54E786E
:100366007DE6F54F7F04121988754C01755102E43C
:100376007880F608F622E55B64037028E558640188
:100386006022E552B40A1D788A0675580122E55B9B
:10039600B40311E5586402600BE552B40A06788A84
:0503A60016755802224B
:101746003F065B4F666D7D077F6F005F7C585E745A
:1017560006545C50781C6E773979713D76061E38D2
:06176600373F736D3E40A9
:10181300E4F535F53BF53F7894F6E53EB40107E48E
:07182300F51678B1760422EE
:10182A00EF75F00A84F541EF75F00A8485F042E518
:07183A0041700375410A2211
:1018B600EF75F00A84F543EF75F00A8485F044224B
:09197F007892E66002D322C32233
:10162200EF14601224FE600A2403700C788AE6FE2E
:101632008006AE4E8002AE3930351AEEC3940C509D
:1016420004D2088006D20974F42EFEEE70027E0CDB
:05165200AF0612182A8A
:011657002270
:10178F00EF14601224FE600A2403700C787DE6FECD
:0D179F008006AE4F8002AE3AAF060218B6CB
:1013D200EF14601824FE600E24037014788AE6FE6F
:1013E200787DE6FD800AAE4EAD4F8004AE39AD3A4F
:1013F200303527EEC3940A40028E46EEC3940C5059
:1014020004D2088006D20974F42EFEEE70027E0C1D
:0A141200AF0612182AAF051218B633
:01141C0022AD
:0719BF00202D0312197F2205
:0719C600D2057F010213D2DC
:10006E00202D0512197F5007D2057F010213D27F72
:05007E000112178F22A2
:10184100202D0512197F5007D2057F010213D27F87
:05185100011216222225
:0119DE0022E6
:1018C600202D0512197F5007D2057F011213D2224F
:10185600202D0512197F5007D2057F030213D27F70
:051866000312178F22A0
:10186B00202D0512197F5007D2057F030213D27F5B
:05187B000312162222F9
:1018D600202D0512197F5007D2057F031213D2223D
:0E190500203B03303107D205E4FF1213D2223B
:0E191300202D0512197F5005AF591218B6226B
:10168A007F057841740AF608DFFCE5606413600C94
:10169A00E53B64016006E54C7002800AE53FB4014F
:1016AA000AE53BB401055320108003E4F520E4F574
:0116BA00210E
:0116BB00220C
:0D19480075410A75423375432A75442A2201
:1017AC00E53EB40203D20022E53EB4010EE535B4A9
:0C17BC000107E53F7003D20F22D20F227C
:10116700E560120816118E01119303119804119D61
:101177000511A20611A70911B10D11AC0F11B61374
:1011870011BB1A000011C01219C680301218D68080
:101197002B121856802612186B8021121913801CE7
:1011A7001218C6801712006E8012121841800D1295
:1011B70019DE800812194880031219057892E66033
:0311C700011622EC
:10110100E5606403605FE5B05420F547E58054086D
:10111100F548E5B020E505E58030E31AE54C6405C6
:101121006014E508B40106D20FC2038009E508B4D2
:101131000204D203C20FE56064136006E535640161
:101141007023E560B41312202D0512197F50081287
:1011510017AC7F011213D2D201E53FB40105A204FD
:06116100920122D20122DE
:091988008F60755D27755E102269
:10171A00203B06E55E455D602212168A12116712A9
:10172A001101E4FF74412FF8E690174693FE74699D
:0B173A002FF8A6060FBF04EC120B9C5A
:011745002281
:1018A400203B0EE55E455D7008E535B40103121773
:0218B400AC2264
:100D1D0020202020200D0A0042542B50520D0A0095
:100D2D0042542B41430D0A00434F4D2B50410D0AA8
:100D3D0000434F4D2B50550D0A00434F4D2B505036
:100D4D000D0A00434F4D2B50560D0A00434F4D2BAE
:100D5D00504E0D0A00434F4D2B49510D0A00434F84
:100D6D004D2B44430D0A00434F4D2B47560D0A00A2
:100D7D00434F4D2B5057440D0A00434F4D2B5344B9
:100D8D004F0D0A00434F4D2B5344460D0A00434F60
:100D9D004D2B4D53440D0A00434F4D2B4D42540DD9
:100DAD000A00434F4D2B5630300D0A00434F4D2B4B
:100DBD005630310D0A00434F4D2B5630320D0A007F
:100DCD00434F4D2B5630330D0A00434F4D2B5630AC
:100DDD00340D0A00434F4D2B5630350D0A00434F4D
:100DED004D2B5630360D0A00434F4D2B5630370DD7
:100DFD000A00434F4D2B5630380D0A00434F4D2BF3
:100E0D005630390D0A00434F4D2B5631300D0A0027
:100E1D00434F4D2B5631310D0A00434F4D2B56315B
:100E2D00320D0A00434F4D2B5631330D0A00434FFF
:100E3D004D2B5631340D0A00434F4D2B5631350D88
:0C0E4D000A00434F4D2B5631360D0A00B1
:0500030035F0FA7BFF5F
:1000080078ABE670FB7F0A7809E4F608DFFCE4FFCA
:1000180078AAE6FEEFC39E501412070AFE74092F51
:10002800F8A606740129F9E43AFA0F80E3E478ADFA
:0F003800F678AB760178ADE6062409F8E6F5E731
:010047002296
:101227008F73E573C394035012EF75F008A4241D60
:10123700F9740D12000378AA760822E573C3940B9C
:101247005013E57375F009A4241AF9740D120003FD
:1012570078AA760922E573C39410500DE57375F0EB
:101267000AA4240FF9740D800C7891E675F00AA48E
:0D12770024AFF9740D12000378AA760A2244
:10176C00303D090515E515C394644016E515B464C0
:10177C000778B1760AE4F516E515C3946440037551
:03178C00156522BE
:1003AB00203E06203F03020613303E0DC23E7573FE
:1003BB0000757400757596800BC23F75730075746C
:1003CB00007575A0AB73AA74A97512070AFF644276
:1003DB00600302047490000112072364546003024B
:1003EB000474900003120723FEB44311900004120F
:1003FB000723B44E08D23D751302750801E55FB4AF
:10040B000113EE64507023900004120723B4411AB9
:10041B00755F028015900003120723B4500C9000F7
:10042B0004120723B441037516149000031207231B
:10043B00FEB4500C900004120723B45503E4F516D8
:10044B00EEB4570E900004120723B4500575130138
:10045B00C23D900003120723B4570E9000041207FD
:10046B0023B44305751301C23DEF6453702E900006
:10047B000112072364447024900003120723FFB476
:10048B00500B900004120723B44102D241EFB45039
:10049B000B900004120723B45502C24112070A64E1
:1004AB0041703090000112072364587026900003AE
:1004BB00120723FFB4500C900004120723B441031E
:1004CB00751601EFB4500C900004120723B45503BA
:1004DB00E4F51612070A644360030205FE9000015F
:1004EB00120723644F60030205FE900002120723DC
:1004FB00644D60030205FE900004120723645660EE
:10050B000302058C90000512072364307073900072
:10051B000612072324D0B40A00506690053475F0F8
:10052B0003A4C58325F0C583730205520205580247
:10053B00055E02056402056A020570020576020576
:10054B007C020582020588E47891F68034789176F6
:10055B0001802E789176028028789176038022781C
:10056B00917604801C7891760580167891760680BA
:10057B001078917607800A789176088004789176C6
:10058B0009AB73AA74A97590000412072364567003
:10059B006290000512072364317058900006120711
:1005AB002324D0B40700504B9005C175F003A4C5AC
:1005BB008325F0C583730205D60205DC0205E20232
:1005CB0005E80205EE0205F40205FA7891760A8039
:1005DB00227891760B801C7891760C801678917628
:1005EB000D80107891760E800A7891760F800478C2
:1005FB00917610E4FFAB73AA74A9758F8275830093
:08060B00E41207500FBF0AEDD5
:0106130022C4
:100E59001203ABE50864016009E508640260030256
:100E69000F02203C12E478B2F6C23DF5167891E6FD
:100E7900F478B0F6E4F514D23CE51414601014606B
:100E8900161460161460192404701B020F27121817
:100E99009253C0FE05142205142243C001051422F1
:100EA9001217FB051422E5B030E50AE54C6405602C
:100EB90004D20FD23B7891E6FF78B0666009A607A5
:100EC9007F10121227800D78B1E6FF6007121227F2
:100ED900E478B1F6E5C030E10E78B2E6D394054086
:100EE90002800E78B20622E53EB40209E53BB40160
:100EF90004438002225380FD22303C0EE478B2F68E
:100F0900F514E5B020E50343B008C23CE5141460CC
:100F190013146013146013146013240470125380A3
:100F2900FD05142205142205142205142205142294
:040F390053C0FE2281
:100B9C00303A0C7569FF756AFF756BFF756CFFE574
:100BAC006365696019E56930E104D2128002C212F2
:100BBC00E56930E204D2158002C215856963E564EB
:100BCC00656A6050E56A30E004D2118002C211E51A
:100BDC006A30E104D2148002C214E56A30E204D215
:100BEC00188002C218E56A30E304D21B8002C21BD3
:100BFC00E56A30E404D21E8002C21EE56A30E504C8
:100C0C00D2218002C221E56A30E604D2248002C2DD
:100C1C0024856A64E565656B6050E56B30E004D251
:100C2C00138002C213E56B30E104D2178002C217A5
:100C3C00E56B30E204D21A8002C21AE56B30E30491
:100C4C00D21D8002C21DE56B30E404D2208002C2AA
:100C5C0020E56B30E504D2238002C223E56B30E63D
:100C6C0004D2268002C226856B65E566656C6050F1
:100C7C00E56C30E004D2168002C216E56C30E1045B
:100C8C00D2198002C219E56C30E204D21C8002C277
:100C9C001CE56C30E304D21F8002C21FE56C30E40B
:100CAC0004D2228002C222E56C30E504D2258002F7
:100CBC00C225E56C30E604D2278002C227856C661B
:100CCC00E52065676028E52030E104D2288002C267
:100CDC0028E52030E304D22C8002C22CE52030E43D
:100CEC0006D229D22A8004C229C22A856D67E52141
:100CFC006568601CE52130E002C210E52130E1029C
:100D0C00D210E52130E704D22B8002C22B856E680D
:010D1C0022B4
:10083C001519E51970575390FB53A0FE5390EF53C5
:10084C0090DF53B0FE53B0FB53A0FD5390F7539879
:10085C007F5398FE5398FD53A0EF53B0FD53A0DF88
:10086C0053907F5398BF5398F75398EF53A0FB5373
:10087C00A07F53A0F75398FB5398DF5390FD5390F0
:10088C00FE5390BF53A0BF53B0F753B0EF151CE508
:10089C001C6003020A03E549B40105751964801252
:1008AC00E549B402057519AF8008E549B403037531
:1008BC0019FFE5197003020A0330120543900480F6
:1008CC00035390FB30150543A001800353A0FE3069
:1008DC00110543901080035390EF30140543902082
:1008EC0080035390DF30180543B001800353B0FEF2
:1008FC00301B0543B004800353B0FB301E0543A0EE
:10090C0002800353A0FD30210543900880035390CF
:10091C00F7302405439880800353987F30130543A8
:10092C00980180035398FE301705439802800353B7
:10093C0098FD301A0543A010800353A0EF301D051D
:10094C0043B002800353B0FD30200543A020800348
:10095C0053A0DF302305439080800353907F3026D3
:10096C000543984080035398BF3016054398088080
:10097C00035398F730190543981080035398EF30C0
:10098C001C0543A004800353A0FB301F0543A0802B
:10099C00800353A07F30220543A008800353A0F7A7
:1009AC0030250543980480035398FB302705439862
:1009BC002080035398DF301005439002800353903E
:1009CC00FD30280543900180035390FE30290543E8
:1009DC00904080035390BF302A0543A040800353BE
:1009EC00A0BF302B0543B008800353B0F7302C0464
:0809FC0043B0102253B0EF22BA
:10133300051EE51E7002051DC394F4E51D940140CE
:1013430041751D01751EF4E58020E01CE50864016C
:10135300703078B1760C0517E517C394054023E484
:10136300F517750802760E22E508B4021578B176F2
:101373000D0517E517C394054008E4F51775080133
:03138300760F22C0
:1018E600E4F580F588F590F598F5A0F5B0F5C022F9
:0F18F60075D80153AAED53B27F53C27F0218E693
:0719CD00758A0243D90422D0
:0B195500E4781FF6781F06E6B40BF9DB
:011960002264
:1017E20053A87F1212841219B81219B11219991240
:0917F200192112192E43A88022CE
:1017C80012181378297C007D007B007A0079357E19
:0A17D800007F0C1206E4855872220F
:1014B100E5C020E23E0571E571D3940A40357571AE
:1014C1000C1217C8E4F55B1219A91218F61219CDFE
:1014D100758701121955E4FFE5C030E20DE4FE0EF7
:1014E100BE10FC0FEFC3940440EEEFC3940440E040
:0314F1001217E2ED
:0114F40022D5
:10108100020086E493A3F8E493A34003F68001F2FF
:1010910008DFF48029E493A3F85407240CC8C33370
:1010A100C4540F4420C8834004F456800146F6DF3F
:1010B100E4800B0102040810204080900048E47E87
:1010C100019360BCA3FF543F30E509541FFEE49334
:1010D100A360010ECF54C025E060A840B8E493A3FB
:1010E100FAE493A3F8E493A3C8C582C8CAC583CA26
:1010F100F0A3C8C582C8CAC583CADFE9DEE780BEDE
:01004A0000B5
:10061400E709F608DFFA8046E709F208DFFA803EC8
:1006240088828C83E709F0A3DFFA8032E309F608B5
:10063400DFFA8078E309F208DFFA807088828C831D
:10064400E309F0A3DFFA806489828A83E0A3F608D1
:10065400DFFA805889828A83E0A3F208DFFA804CAB
:1006640080D280FA80C680D4806980F28033801082
:1006740080A680EA809A80A880DA80E280CA8033EB
:1006840089828A83ECFAE493A3C8C582C8CCC58363
:10069400CCF0A3C8C582C8CCC583CCDFE9DEE78033
:1006A4000D89828A83E493A3F608DFF9ECFAA9F0B2
:1006B400EDFB2289828A83ECFAE0A3C8C582C8CC08
:1006C400C583CCF0A3C8C582C8CCC583CCDFEADE21
:1006D400E880DB89828A83E493A3F208DFF980CC83
:1006E40088F0EF60010E4E60C388F0ED2402B4047C
:1006F4000050B9F582EB2402B4040050AF23234523
:06070400822390066473DD
:10070A00BB010689828A83E0225002E722BBFE02ED
:09071A00E32289828A83E4932220
:10072300BB010CE58229F582E5833AF583E022508B
:1007330006E92582F8E622BBFE06E92582F8E222D5
:0D074300E58229F582E5833AF583E49322EF
:10075000F8BB010DE58229F582E5833AF583E8F0DF
:10076000225006E92582C8F622BBFE05E92582C88B
:02077000F22273
:10077200BC000BBE0029EF8DF084FFADF022E4CC6B
:10078200F875F008EF2FFFEE33FEEC33FCEE9DEC34
:10079200984005FCEE9DFE0FD5F0E9E4CEFD22ED7A
:1007A200F8F5F0EE8420D21CFEADF075F008EF2FC4
:1007B200FFED33FD4007985006D5F0F222C398FDB5
:0507C2000FD5F0EA2252
:1007C700EB9FF5F0EA9E42F0E99D42F0E89C45F088
:0107D70022FF
:0C07D800E6FC08E6FD08E6FE08E6FF224D
:0D07E400E6FB08E6F908E6FA08E6CBF82285
:0C07F100ECF608EDF608EEF608EFF62234
:1007FD00D083D082E493F608740193F608740293C3
:09080D00F608740393F6740473F9
:10081600D083D082F8E4937012740193700DA3A371
:1008260093F8740193F5828883E473740293686085
:06083600EFA3A3A380DF85
:00000001FF
