:03000000020FB23A
:0C0FB20078FFE4F6D8FD7581B1020FF95C
:02004800C143B2
:1000860053A87F1211C11218F31218EC1218D412C9
:0D009600185C12186943A8801212C380FE86
:03004B0002121985
:0B121900C0E0C0D075D000C000C007CE
:10122400AFE753E5DB78AC760A30401D78AAE6C315
:10123400940A5007E6062494F8A607EF640A70237C
:1012440078AAF6D23EB240801A78AAE6C3940A502D
:1012540007E606249EF8A607BF0A0878AA7600D2F5
:031264003FB24056
:09126700D007D000D0D0D0E03255
:03005300021595FE
:10159500C0E0C0D075D000C00053E57F78A9E660F3
:1015A5001A78AD760A78ABE606244BF8E6F5E778C7
:1015B500ABE6244BF8E6700378A9F6D000D0D0D07E
:0215C500E03212
:03006B000214B2CA
:1014B200C0E0C0F0C083C082C0D075D000C000C000
:1014C20001C002C003C004C005C006C0071213A4B5
:1014D200D007D006D005D004D003D002D001D0006E
:0B14E200D0D0D082D083D0F0D0E03218
:030083000214ED77
:1014ED00C0E0C0F0C083C082C0D075D000C000C0C5
:1014FD0001C002C003C004C005C006C0071207C664
:10150D00D007D006D005D004D003D002D001D00032
:0B151D00D0D0D082D083D0F0D0E032DC
:0300A30002135AEB
:10135A00C0E0C0D075D000C000C007B23130312D16
:10136A00788706E6D3943B40247600787B06E6D35A
:10137A00943B40197600788806E6D39417400E7697
:10138A00007880E625E0FFF6BF80027601A231925E
:0A139A0004D007D000D0D0D0E0321C
:0718CC00E5E530E5FBAFE7A5
:0118D30022F2
:1017BB00EF6007E5974401FF8005E59754FEFF8F27
:0217CB00972263
:0718EC00E4F597758FF92266
:0818D400E4F5ECF5EBF5F5225B
:0D185C0075B29275B47C43AA0243B201221A
:0D18690075C61875C28A43AA1043C2012239
:1017370020431275E30275E20643E3ECE4F5E47532
:08174700E66743A918D2432212
:1017CD0030430CE4F5E3F5E2F5E4F5E653A9E7C2A1
:0217DD004322A5
:0818DC00E5E530E7FB8FE72290
:04004E00438D20229C
:0918B100758E01758DC002004E18
:0B189C00E4F59EF59FF59F53ABFB2287
:0D187600759E88759F01759F8043AB04220D
:0718F30075D929E4F58A22F2
:1011C1007589F675D401E4F592F5E9F5807591F02C
:1011D10075D50FF593F5EAF5887599FFF5D6F59470
:1011E100F59075A1FFF5D7F595F59875B1FFF5DA8D
:1011F100F596F5A075B95FF5DBF59AF5B075C1F116
:10120100F5DCF59BF5C075ED02F5EEF5EFF5F17541
:08121100F318F5F275F40C224C
:0818E400E4F560F55DF55E22FC
:0A18A700E47881F6788EF6C22E2256
:10152800E55E455D6030787406E6C394324004E4B5
:10153800F6B22DE55E155E7002155D14455D7016F8
:10154800E560601224E870057F170218C3755D0016
:07155800755E06E4F5602258
:01005200228B
:10005600202F11787DE6600CC230120052E4FF12A8
:0500660018C3D22F2297
:10147400754903D212D215D211D214D218D21BD26A
:101484001ED221D224D213D217D21AD21DD220D2E4
:1014940023D226D216D219D21CD21FD222D225D2BE
:0E14A40027D210D228D229D22AD22BD22C2223
:10143200155CE55C703B121876C212C215C211C26D
:1014420014C218C21BC21EC221C224C213C217C2B6
:101452001AC21DC220C223C226C216C219C21CC28F
:101462001FC222C225C227C210C228C229C22AC252
:021472002B222B
:1015F90012189C303202C232303302C23330340204
:10160900C234303602C236303702C237303805C2EA
:0F16190038121474303905C23912143202004EDF
:100B0F007887E6FF7893667003020BC5A607E55F4B
:100B1F00B4020D753B01753E02E4F55F78AF7604C4
:100B2F00787BE6FF788B667003020BC5A607E53569
:100B3F00B4011A7888E6B53714EFB53810E53B7075
:100B4F000CE53EB4010778AF7608755F01E53564B3
:100B5F0001704BE53B64017045789206E6C3943C07
:100B6F004003121766E53FB401347877120762EF3E
:100B7F002401FFE43EFEE43DFDE43CFC78771207E0
:100B8F007BE47F09FEFDFC787712076EC3120751D5
:100B9F00400C787712078700000000E4F53F787566
:100BAF00E6FF788866600F7875A607788606E6C335
:100BBF0094184002E4F6E53564016003020C59E530
:100BCF003B64016003020C59E53F706DE53E640123
:100BDF007039303D0578AF7603227882E6FE08E65D
:100BEF00FF7C007D0A1206FCEF4E700478AF760290
:100BFF00788306E618700106C37883E694B818E682
:100C0F00940B4046203D43753E0222E53E64027040
:100C1F0039438002788506E6C3942850047F01800B
:100C2F00107885E6FFC39428400AEF94505005E4EE
:100C3F00FF0217BBE47885F622E4FF1217BB53803F
:0B0C4F00FD304206C24278AF7604225E
:10110700E50FB40227787F06E618700106C3787FDB
:10111700E694B818E6940B4043E4F50FF50AF60891
:10112700F67888A60C787BA60DF56022E53DB4021B
:101137002B787F06E618700106C3787FE694B81807
:10114700E6940B4017E4F53DF50AF608F6853937BE
:0D115700853A38754001F55DF55EF56022C2
:1013A400D2327891E6FF7002D233EFB40102D23424
:1013B400EFB40202D236EFB40302D237EFB4040220
:1013C400D238EFB40502D239EFB4061278AD16E67E
:1013D400700378A9F678AC16E6700378AAF67891CB
:0A13E40006E6C3940A4002E4F62274
:10162800755B03754903753E01E4F54A53C0FE75C1
:101638005CC8788F760808F6D23BD235D2317887E5
:0F164800F6787BF67888F6755902F558C230228D
:1012C300121628E55C60051215F980F7303202C268
:1012D30032303308C23312190F1200A62034033000
:1012E3003607C234C236120D96303705C23712168E
:1012F30057303805C23812152830390BC23912114C
:0C13030007120B0F12127012004E80C077
:100F1900E4FFFEE588540F640F6025438820438869
:100F290020438820438820E588540FFF5388CF4306
:100F39008810438810438810438810E588540FFEB1
:100F49005388CFBF0E06BE0F037F0122BF0D06BE19
:100F59000F037F0222BF0B06BE0F037F0322BF07C9
:100F690006BE0F037F0422BF0F06BE0E037F0522B4
:100F7900BF0F06BE0D037F0622BF0F06BE0B037F00
:100F89000722BF0F06BE07037F0822BF0E06BE0E4B
:100F9900037F0922BF0D06BE0E037F0A22BF0F067B
:080FA900BE0C037F0B227F0048
:010FB100221D
:03191500120F1995
:0119180022AC
:100E7A00E4F508E5146F600BE5156F60038F152222
:100E8A008F1422E51465137051E5137003020F18CD
:100E9A00E50B607A150BE50B7074851311E5097083
:100EAA0003750801E51214601414601B14601824F9
:100EBA0003705B751201431120750B322275120201
:100ECA00431160750B1422751203431180750B14BC
:100EDA00E510C394FA5037051022E5136025F51181
:100EEA00E5097003750801E51224FE600C14600B15
:100EFA002402700A431140800580004311C0E4F5C2
:0F0F0A00128005E4F509F510750B058514132207
:06190F00121915020E7A08
:1000A600E5087003020355E535B40110E53BB401DC
:1000B6000BE511540F64016003121766E511120770
:1000C600A000FE4101144201934301A64401B54537
:1000D600025C4602DC4702F34803274A033F4B0112
:1000E6001482019883025C8602E88702FF8903274F
:1000F6008A033F8B00000355E53BB40104753F01BD
:10010600221549E549600302035575490322E50AAC
:10011600B40111E55BB4030CE50CC39418505E05FD
:100126000C02026FE50AB40211E55BB4030CE50D9F
:10013600C3943B5002050D020284E50AB40311E59F
:1001460035B4010CE539C394185002053902026F23
:10015600E50AB40411E535B4010CE53AC3943B5005
:1001660002053A02026FE50AB40515E535B4011039
:10017600E53EB40205753E018003753E0202026F3C
:10018600788FE6C3940F4003020355062278AF76B4
:100196000522E510640A600302035578AF7608224B
:1001A600E54AD39400500302035578AF760722E55B
:1001B6000AB4010B7F051218C3750A0202031DE576
:1001C6000AB40214E4F50A7888A60C787BA60DF525
:1001D6000F787EF608F68077E55BB40304E50A60DF
:1001E60005E540B4011885373985383A7F0F12186E
:1001F600C3750A03753501753D02E4F54022E50A2B
:10020600B4030FE535B4010A7F0D1218C3750A044D
:100216008012E50AB40413E535B4010E7F131218F3
:10022600C3750A05753D020202B5E50A6405600359
:10023600020355E53564016003020355750A06F5A8
:100246003D787EF608F6853937853A38754001F5EA
:100256005DF55EF56022E50AB40110E55BB4030BBB
:10026600E50CD394004002150C8044E50AB402154F
:10027600E55BB40310E50DD394004002150DE47858
:100286007BF6020321E50AB40312E535B4010DE558
:1002960039D394005003020355153922E50AB404F4
:1002A60011E535B4010CE53AD394004002153AE461
:1002B6008069E50AB40515E535B40110E53EB402DA
:1002C60005753E018003753E02E4804F788FE6D3C4
:1002D6009400407B1622E54A7004754A0122E4F533
:1002E6004A22E510640A706778AF760122E54AD3A0
:1002F6009400405B78AF760622E55B64037050E5B8
:1003060010640A704A7888E6F50C787BE6F50D7F6E
:10031600041218C3750A01750F02E4787EF608F612
:1003260022E55B64037028E55864016022E510B499
:100336000A1D78880675580122E55BB40311E55855
:100346006402600BE510B40A067888167558022216
:101683003F065B4F666D7D077F6F005F7C585E741E
:1016930006545C50781C6E773979713D76061E3896
:0616A300373F736D3E406D
:10176600E4F535F53BF53F7892F6E53EB40106C261
:061776004278AF76042268
:10174F00EF75F00A84F541EF75F00A8485F042E5F4
:07175F0041700375410A22ED
:1017F100EF75F00A84F543EF75F00A8485F0442211
:0918BA007890E66002D322C322FB
:10155F00EF14601224FE600A2403700C7888E6FEF4
:10156F008006AE0C8002AE3930351AEEC3940C50A3
:10157F0004D2088006D20974F42EFEEE70027E0C9F
:05158F00AF0612174F2A
:011594002234
:1016CB00EF14601224FE600A2403700C787BE6FE94
:0D16DB008006AE0D8002AE3AAF060217F198
:10130F00EF14601824FE600E240370147888E6FE34
:10131F00787BE6FD800AAE0CAD0D8004AE39AD3A98
:10132F00303527EEC3940A40028E46EEC3940C501C
:10133F0004D2088006D20974F42EFEEE70027E0CE1
:0A134F00AF0612174FAF051217F199
:011359002271
:0718FA00202D031218BA2291
:07190100D2057F0102130F64
:10006E00202D051218BA5007D2057F0102130F7FFB
:05007E00011216CB2267
:10177C00202D051218BA5007D2057F0102130F7FD6
:05178C000112155F22AF
:0119190022AB
:10180100202D051218BA5007D2057F0112130F229D
:10179100202D051218BA5007D2057F0302130F7FBF
:0517A100031216CB222B
:1017A600202D051218BA5007D2057F0302130F7FAA
:0517B6000312155F2283
:10181100202D051218BA5007D2057F0312130F228B
:0E184000203B03303107D205E4FF12130F22C4
:0E184E00202D051218BA5005AF591217F122BD
:1015C7007F057841740AF608DFFCE5606413600C58
:1015D700E53B64016006E50A7002800AE53FB40155
:1015E7000AE53BB401055320108003E4F520E4F538
:0115F70021D2
:0115F80022D0
:0D18830075410A75423375432A75442A22C7
:1016E800E53EB40203D20022E53EB4010EE535B46E
:0C16F8000107E53F7003D20F22D20F2241
:1010A400E5601207A010CB0110D00310D50410DAAC
:1010B4000510DF0610E40910EE0D10E90F10F3130C
:1010C40010F81A000010FD12190180301218118056
:1010D4002B12179180261217A6802112184E801CFD
:1010E400121801801712006E801212177C800D12E4
:1010F4001919800812188380031218407890E6604A
:03110400011622AF
:10103E00E5606403605FE5B05420F547E580540831
:10104E00F548E5B020E505E58030E31AE50A6405CC
:10105E006014E54AB40106D20FC2038009E54AB412
:10106E000204D203C20FE56064136006E535640125
:10107E007023E560B41312202D051218BA50081211
:10108E0016E87F0112130FD201E53FB40105A20449
:06109E00920122D20122A2
:0918C3008F60755D27755E10222F
:10165700203B06E55E455D60221215C71210A412F5
:10166700103EE4FF74412FF8E690168393FE741C36
:0B1677002FF8A6060FBF04EC12098E2E
:011682002245
:1017DF00203B0EE55E455D7008E535B4010312163A
:0217EF00E822EE
:100C5A0020202020200D0A0042542B50520D0A0059
:100C6A0042542B41430D0A00434F4D2B50410D0A6C
:100C7A0000434F4D2B50550D0A00434F4D2B5050FA
:100C8A000D0A00434F4D2B50560D0A00434F4D2B72
:100C9A00504E0D0A00434F4D2B49510D0A00434F48
:100CAA004D2B44430D0A00434F4D2B47560D0A0066
:100CBA00434F4D2B5057440D0A00434F4D2B53447D
:100CCA004F0D0A00434F4D2B5344460D0A00434F24
:100CDA004D2B4D53440D0A00434F4D2B4D42540D9D
:100CEA000A00434F4D2B5630300D0A00434F4D2B0F
:100CFA005630310D0A00434F4D2B5630320D0A0043
:100D0A00434F4D2B5630330D0A00434F4D2B56306F
:100D1A00340D0A00434F4D2B5630350D0A00434F10
:100D2A004D2B5630360D0A00434F4D2B5630370D9A
:100D3A000A00434F4D2B5630380D0A00434F4D2BB6
:100D4A005630390D0A00434F4D2B5631300D0A00EB
:100D5A00434F4D2B5631310D0A00434F4D2B56311F
:100D6A00320D0A00434F4D2B5631330D0A00434FC3
:100D7A004D2B5631340D0A00434F4D2B5631350D4C
:0C0D8A000A00434F4D2B5631360D0A0075
:0500030035F0FA7BFF5F
:1000080078A9E670FB7F0A784BE4F608DFFCE4FF8A
:1000180078A8E6FEEFC39E5014120694FE744B2F88
:10002800F8A606740129F9E43AFA0F80E3E478ABFC
:0F003800F678A9760178ABE606244BF8E6F5E7F3
:010047002296
:101164008F71E571C394035012EF75F008A4245AEB
:10117400F9740C12000378A8760822E571C3940B65
:101184005013E57175F009A42457F9740C12000387
:1011940078A8760922E571C39410500DE57175F0B5
:1011A4000AA4244CF9740C800C788FE675F00AA418
:0D11B40024ECF9740C12000378A8760A22CE
:1016A900303D090557E557C394644015E557B464BF
:1016B9000678AF760AC242E557C39464400375576A
:0216C900652298
:10035600203E06203F0302059D303E0DC23E7571CC
:1003660000757200757394800BC23F7571007572CB
:100376000075739EAB71AA72A973120694FF64424C
:1003860070789000011206AD6454706E90000312EE
:1003960006ADFEB443119000041206ADB44E08D269
:1003A6003D755502754A01E55FB40113EE64507060
:1003B600229000041206ADB44119755F02801490B4
:1003C60000031206ADB4500B9000041206ADB44102
:1003D60002D2429000031206ADFEB4500B90000408
:1003E6001206ADB45502C242EEB4570E9000041286
:1003F60006ADB45005755501C23DEF6453702E909D
:1004060000011206AD644470249000031206ADFF8D
:10041600B4500B9000041206ADB44102D241EFB4C1
:10042600500B9000041206ADB45502C24112069458
:100436006441702E9000011206AD6458702490003D
:10044600031206ADFFB4500B9000041206ADB44182
:1004560002D242EFB4500B9000041206ADB455021E
:10046600C24212069464436003020588900001129A
:1004760006AD644F60030205889000021206AD6463
:100486004D60030205889000041206AD64566003B1
:100496000205169000051206AD64307073900006D2
:1004A6001206AD24D0B40A0050669004BE75F0035F
:1004B600A4C58325F0C583730204DC0204E20204AA
:1004C600E80204EE0204F40204FA0205000205063C
:1004D60002050C020512E4788FF68034788F7601D7
:1004E600802E788F76028028788F76038022788F08
:1004F6007604801C788F76058016788F76068010B5
:10050600788F7607800A788F76088004788F760948
:10051600AB71AA72A9739000041206AD645670629C
:100526009000051206AD643170589000061206ADB3
:1005360024D0B40700504B90054B75F003A4C58337
:1005460025F0C5837302056002056602056C020587
:100556007202057802057E020584788F760A80226B
:10056600788F760B801C788F760C8016788F760DB8
:100576008010788F760E800A788F760F8004788FB9
:100586007610E4FFAB71AA72A9738F82758300E4BB
:070596001206DA0FBF0AEDA7
:01059D00223B
:100D9600120356E54A64016009E54A6402600302EB
:100DA6000E3F203C12E478B0F6C23DC242788FE690
:100DB600F478AEF6E4F556D23CE5561460101460AD
:100DC600161460161460192404701B020E641217A0
:100DD600CD53C0FE05562205562243C001055622B4
:100DE600121737055622E5B030E50AE50A640560B4
:100DF60004D20FD23B788FE6FF78AE666009A6076D
:100E06007F10121164800D78AFE6FF60071211643F
:100E1600E478AFF6E5C030E10E78B0E6D39405404D
:100E260002800E78B00622E53EB40209E53BB40125
:100E360004438002225380FD22303C0EE478B0F653
:100E4600F556E5B020E50343B008C23CE55614600C
:100E56001314601314601314601324047012538067
:100E6600FD0556220556220556220556220556220E
:040E760053C0FE2245
:10098E00303A0C751CFF751DFF751EFF751FFFE5B8
:10099E0016651C6019E51C30E104D2128002C212E9
:1009AE00E51C30E204D2158002C215851C16E5172F
:1009BE00651D6050E51D30E004D2118002C211E5C4
:1009CE001D30E104D2148002C214E51D30E204D2BF
:1009DE00188002C218E51D30E304D21B8002C21B30
:1009EE00E51D30E404D21E8002C21EE51D30E50472
:1009FE00D2218002C221E51D30E604D2248002C23B
:100A0E0024851D17E518651E6050E51E30E004D2E2
:100A1E00138002C213E51E30E104D2178002C21702
:100A2E00E51E30E204D21A8002C21AE51E30E3043B
:100A3E00D21D8002C21DE51E30E404D2208002C207
:100A4E0020E51E30E504D2238002C223E51E30E6E7
:100A5E0004D2268002C226851E18E519651F605035
:100A6E00E51F30E004D2168002C216E51F30E10405
:100A7E00D2198002C219E51F30E204D21C8002C2D4
:100A8E001CE51F30E304D21F8002C21FE51F30E4B5
:100A9E0004D2228002C222E51F30E504D225800254
:100AAE00C225E51F30E604D2278002C227851F1912
:100ABE00E520651A6028E52030E104D2288002C2C4
:100ACE0028E52030E304D22C8002C22CE52030E44D
:100ADE0006D229D22A8004C229C22A85201AE521EB
:100AEE00651B601CE52130E002C210E52130E102F9
:100AFE00D210E52130E704D22B8002C22B85211BB8
:010B0E0022C4
:1007C6001565E56570575390FB53A0FE5390EF53A4
:1007D60090DF53B0FE53B0FB53A0FD5390F75398F0
:1007E6007F5398FE5398FD53A0EF53B0FD53A0DFFF
:1007F60053907F5398BF5398F75398EF53A0FB53EA
:10080600A07F53A0F75398FB5398DF5390FD539066
:10081600FE5390BF53A0BF53B0F753B0EF1568E532
:1008260068600302098DE549B401057565648012A7
:10083600E549B402057565AF8008E549B40303755B
:1008460065FFE565700302098D301205439004804B
:10085600035390FB30150543A001800353A0FE30DF
:10086600110543901080035390EF301405439020F8
:1008760080035390DF30180543B001800353B0FE68
:10088600301B0543B004800353B0FB301E0543A064
:1008960002800353A0FD3021054390088003539046
:1008A600F7302405439880800353987F301305431F
:1008B600980180035398FE3017054398028003532E
:1008C60098FD301A0543A010800353A0EF301D0594
:1008D60043B002800353B0FD30200543A0208003BF
:1008E60053A0DF302305439080800353907F30264A
:1008F6000543984080035398BF30160543980880F7
:10090600035398F730190543981080035398EF3036
:100916001C0543A004800353A0FB301F0543A080A1
:10092600800353A07F30220543A008800353A0F71D
:1009360030250543980480035398FB3027054398D8
:100946002080035398DF30100543900280035390B4
:10095600FD30280543900180035390FE302905435E
:10096600904080035390BF302A0543A04080035334
:10097600A0BF302B0543B008800353B0F7302C04DA
:0809860043B0102253B0EF2230
:10127000056AE56A70020569C394F4E56994014062
:1012800041756901756AF4E58020E01CE54A640156
:10129000703078AF760C0563E563C394054023E4B2
:1012A000F563754A02760E22E54AB4021578AF76E8
:1012B0000D0563E563C394054008E4F563754A01D1
:0312C000760F2284
:10182100E4F580F588F590F598F5A0F5B0F5C022BE
:0F18310075D80153AAED53B27F53C27F0218211D
:07190800758A0243D9042295
:0B189000E478B1F678B106E6B40BF97D
:01189B00222A
:10171E0053A87F1211C11218F31218EC1218D4121A
:09172E00185C12186943A880221E
:1017040012176678297C007D007B007A0079357E8B
:0A171400007F0C12066E855870224B
:1013EE00E5C020E23E056FE56FD3940A4035756F78
:1013FE000C121704E4F55B1218E4121831121908D6
:10140E00758701121890E4FFE5C030E20DE4FE0E80
:10141E00BE10FC0FEFC3940440EEEFC3940440E003
:03142E0012171E74
:011431002298
:100FBE00020086E493A3F8E493A34003F68001F2C3
:100FCE0008DFF48029E493A3F85407240CC8C33334
:100FDE00C4540F4420C8834004F456800146F6DF03
:100FEE00E4800B0102040810204080900048E47E4B
:100FFE00019360BCA3FF543F30E509541FFEE493F8
:10100E00A360010ECF54C025E060A840B8E493A3BE
:10101E00FAE493A3F8E493A3C8C582C8CAC583CAE9
:10102E00F0A3C8C582C8CAC583CADFE9DEE780BEA1
:01004A0000B5
:10059E00E709F608DFFA8046E709F208DFFA803E3F
:1005AE0088828C83E709F0A3DFFA8032E309F6082C
:1005BE00DFFA8078E309F208DFFA807088828C8394
:1005CE00E309F0A3DFFA806489828A83E0A3F60848
:1005DE00DFFA805889828A83E0A3F208DFFA804C22
:1005EE0080D280FA80C680D4806980F280338010F9
:1005FE0080A680EA809A80A880DA80E280CA803362
:10060E0089828A83ECFAE493A3C8C582C8CCC583D9
:10061E00CCF0A3C8C582C8CCC583CCDFE9DEE780A9
:10062E000D89828A83E493A3F608DFF9ECFAA9F028
:10063E00EDFB2289828A83ECFAE0A3C8C582C8CC7E
:10064E00C583CCF0A3C8C582C8CCC583CCDFEADE97
:10065E00E880DB89828A83E493A3F208DFF980CCF9
:10066E0088F0EF60010E4E60C388F0ED2402B404F2
:10067E000050B9F582EB2402B4040050AF23234599
:06068E0082239005EE73CB
:10069400BB010689828A83E0225002E722BBFE0264
:0906A400E32289828A83E4932297
:1006AD00BB010CE58229F582E5833AF583E0225002
:1006BD0006E92582F8E622BBFE06E92582F8E2224C
:0D06CD00E58229F582E5833AF583E4932266
:1006DA00F8BB010DE58229F582E5833AF583E8F056
:1006EA00225006E92582C8F622BBFE05E92582C802
:0206FA00F222EA
:1006FC00BC000BBE0029EF8DF084FFADF022E4CCE2
:10070C00F875F008EF2FFFEE33FEEC33FCEE9DECAA
:10071C00984005FCEE9DFE0FD5F0E9E4CEFD22EDF0
:10072C00F8F5F0EE8420D21CFEADF075F008EF2F3A
:10073C00FFED33FD4007985006D5F0F222C398FD2B
:05074C000FD5F0EA22C8
:10075100EB9FF5F0EA9E42F0E99D42F0E89C45F0FE
:010761002275
:0C076200E6FC08E6FD08E6FE08E6FF22C3
:0D076E00E6FB08E6F908E6FA08E6CBF822FB
:0C077B00ECF608EDF608EEF608EFF622AA
:10078700D083D082E493F608740193F60874029339
:09079700F608740393F674047370
:1007A000D083D082F8E4937012740193700DA3A3E8
:1007B00093F8740193F5828883E4737402936860FC
:0607C000EFA3A3A380DFFC
:00000001FF
